{
  "abi": [
    {
      "inputs": [],
      "stateMutability": "nonpayable",
      "type": "constructor"
    },
    {
      "inputs": [
        {
          "internalType": "string",
          "name": "name",
          "type": "string"
        },
        {
          "internalType": "string",
          "name": "artistName",
          "type": "string"
        },
        {
          "internalType": "string",
          "name": "url",
          "type": "string"
        }
      ],
      "name": "addSong",
      "outputs": [],
      "stateMutability": "nonpayable",
      "type": "function"
    },
    {
      "inputs": [
        {
          "internalType": "uint256",
          "name": "index",
          "type": "uint256"
        }
      ],
      "name": "getSong",
      "outputs": [
        {
          "internalType": "string",
          "name": "",
          "type": "string"
        },
        {
          "internalType": "string",
          "name": "",
          "type": "string"
        },
        {
          "internalType": "string",
          "name": "",
          "type": "string"
        }
      ],
      "stateMutability": "view",
      "type": "function"
    },
    {
      "inputs": [],
      "name": "getSongCount",
      "outputs": [
        {
          "internalType": "uint256",
          "name": "",
          "type": "uint256"
        }
      ],
      "stateMutability": "view",
      "type": "function"
    },
    {
      "inputs": [
        {
          "internalType": "uint256",
          "name": "index",
          "type": "uint256"
        }
      ],
      "name": "removeSong",
      "outputs": [],
      "stateMutability": "nonpayable",
      "type": "function"
    }
  ],
  "devdoc": {
    "kind": "dev",
    "methods": {},
    "version": 1
  },
  "evm": {
    "assembly": "    /* \"MusicList.sol\":57:1232  contract MusicList {... */\n  mstore(0x40, 0x80)\n    /* \"MusicList.sol\":254:270  constructor() {} */\n  callvalue\n  dup1\n  iszero\n  tag_1\n  jumpi\n  0x00\n  dup1\n  revert\ntag_1:\n  pop\n    /* \"MusicList.sol\":57:1232  contract MusicList {... */\n  dataSize(sub_0)\n  dup1\n  dataOffset(sub_0)\n  0x00\n  codecopy\n  0x00\n  return\nstop\n\nsub_0: assembly {\n        /* \"MusicList.sol\":57:1232  contract MusicList {... */\n      mstore(0x40, 0x80)\n      callvalue\n      dup1\n      iszero\n      tag_1\n      jumpi\n      0x00\n      dup1\n      revert\n    tag_1:\n      pop\n      jumpi(tag_2, lt(calldatasize, 0x04))\n      shr(0xe0, calldataload(0x00))\n      dup1\n      0x42acaa66\n      eq\n      tag_3\n      jumpi\n      dup1\n      0xca487ad9\n      eq\n      tag_4\n      jumpi\n      dup1\n      0xcd2058df\n      eq\n      tag_5\n      jumpi\n      dup1\n      0xd4342cc7\n      eq\n      tag_6\n      jumpi\n    tag_2:\n      0x00\n      dup1\n      revert\n        /* \"MusicList.sol\":868:1126  function getSong(uint index) external view returns (string memory, string memory, string memory) {... */\n    tag_3:\n      tag_7\n      0x04\n      dup1\n      calldatasize\n      sub\n      dup2\n      add\n      swap1\n      tag_8\n      swap2\n      swap1\n      tag_9\n      jump\t// in\n    tag_8:\n      tag_10\n      jump\t// in\n    tag_7:\n      mload(0x40)\n      tag_11\n      swap4\n      swap3\n      swap2\n      swap1\n      tag_12\n      jump\t// in\n    tag_11:\n      mload(0x40)\n      dup1\n      swap2\n      sub\n      swap1\n      return\n        /* \"MusicList.sol\":1132:1230  function getSongCount() external view returns(uint) {... */\n    tag_4:\n      tag_13\n      tag_14\n      jump\t// in\n    tag_13:\n      mload(0x40)\n      tag_15\n      swap2\n      swap1\n      tag_16\n      jump\t// in\n    tag_15:\n      mload(0x40)\n      dup1\n      swap2\n      sub\n      swap1\n      return\n        /* \"MusicList.sol\":276:577  function addSong(string memory name, string memory artistName, string memory url) external {... */\n    tag_5:\n      tag_17\n      0x04\n      dup1\n      calldatasize\n      sub\n      dup2\n      add\n      swap1\n      tag_18\n      swap2\n      swap1\n      tag_19\n      jump\t// in\n    tag_18:\n      tag_20\n      jump\t// in\n    tag_17:\n      stop\n        /* \"MusicList.sol\":583:862  function removeSong(uint index) external {... */\n    tag_6:\n      tag_21\n      0x04\n      dup1\n      calldatasize\n      sub\n      dup2\n      add\n      swap1\n      tag_22\n      swap2\n      swap1\n      tag_9\n      jump\t// in\n    tag_22:\n      tag_23\n      jump\t// in\n    tag_21:\n      stop\n        /* \"MusicList.sol\":868:1126  function getSong(uint index) external view returns (string memory, string memory, string memory) {... */\n    tag_10:\n        /* \"MusicList.sol\":920:933  string memory */\n      0x60\n        /* \"MusicList.sol\":935:948  string memory */\n      dup1\n        /* \"MusicList.sol\":950:963  string memory */\n      0x60\n        /* \"MusicList.sol\":975:991  Song memory song */\n      0x00\n        /* \"MusicList.sol\":994:999  songs */\n      dup1\n        /* \"MusicList.sol\":994:1011  songs[msg.sender] */\n      0x00\n        /* \"MusicList.sol\":1000:1010  msg.sender */\n      caller\n        /* \"MusicList.sol\":994:1011  songs[msg.sender] */\n      0xffffffffffffffffffffffffffffffffffffffff\n      and\n      0xffffffffffffffffffffffffffffffffffffffff\n      and\n      dup2\n      mstore\n      0x20\n      add\n      swap1\n      dup2\n      mstore\n      0x20\n      add\n      0x00\n      keccak256\n        /* \"MusicList.sol\":1012:1017  index */\n      dup6\n        /* \"MusicList.sol\":994:1018  songs[msg.sender][index] */\n      dup2\n      sload\n      dup2\n      lt\n      tag_25\n      jumpi\n      tag_26\n      tag_27\n      jump\t// in\n    tag_26:\n    tag_25:\n      swap1\n      0x00\n      mstore\n      keccak256(0x00, 0x20)\n      swap1\n      0x03\n      mul\n      add\n        /* \"MusicList.sol\":975:1018  Song memory song = songs[msg.sender][index] */\n      mload(0x40)\n      dup1\n      0x60\n      add\n      0x40\n      mstore\n      swap1\n      dup2\n      0x00\n      dup3\n      add\n      dup1\n      sload\n      tag_29\n      swap1\n      tag_30\n      jump\t// in\n    tag_29:\n      dup1\n      0x1f\n      add\n      0x20\n      dup1\n      swap2\n      div\n      mul\n      0x20\n      add\n      mload(0x40)\n      swap1\n      dup2\n      add\n      0x40\n      mstore\n      dup1\n      swap3\n      swap2\n      swap1\n      dup2\n      dup2\n      mstore\n      0x20\n      add\n      dup3\n      dup1\n      sload\n      tag_31\n      swap1\n      tag_30\n      jump\t// in\n    tag_31:\n      dup1\n      iszero\n      tag_32\n      jumpi\n      dup1\n      0x1f\n      lt\n      tag_33\n      jumpi\n      0x0100\n      dup1\n      dup4\n      sload\n      div\n      mul\n      dup4\n      mstore\n      swap2\n      0x20\n      add\n      swap2\n      jump(tag_32)\n    tag_33:\n      dup3\n      add\n      swap2\n      swap1\n      0x00\n      mstore\n      keccak256(0x00, 0x20)\n      swap1\n    tag_34:\n      dup2\n      sload\n      dup2\n      mstore\n      swap1\n      0x01\n      add\n      swap1\n      0x20\n      add\n      dup1\n      dup4\n      gt\n      tag_34\n      jumpi\n      dup3\n      swap1\n      sub\n      0x1f\n      and\n      dup3\n      add\n      swap2\n    tag_32:\n      pop\n      pop\n      pop\n      pop\n      pop\n      dup2\n      mstore\n      0x20\n      add\n      0x01\n      dup3\n      add\n      dup1\n      sload\n      tag_35\n      swap1\n      tag_30\n      jump\t// in\n    tag_35:\n      dup1\n      0x1f\n      add\n      0x20\n      dup1\n      swap2\n      div\n      mul\n      0x20\n      add\n      mload(0x40)\n      swap1\n      dup2\n      add\n      0x40\n      mstore\n      dup1\n      swap3\n      swap2\n      swap1\n      dup2\n      dup2\n      mstore\n      0x20\n      add\n      dup3\n      dup1\n      sload\n      tag_36\n      swap1\n      tag_30\n      jump\t// in\n    tag_36:\n      dup1\n      iszero\n      tag_37\n      jumpi\n      dup1\n      0x1f\n      lt\n      tag_38\n      jumpi\n      0x0100\n      dup1\n      dup4\n      sload\n      div\n      mul\n      dup4\n      mstore\n      swap2\n      0x20\n      add\n      swap2\n      jump(tag_37)\n    tag_38:\n      dup3\n      add\n      swap2\n      swap1\n      0x00\n      mstore\n      keccak256(0x00, 0x20)\n      swap1\n    tag_39:\n      dup2\n      sload\n      dup2\n      mstore\n      swap1\n      0x01\n      add\n      swap1\n      0x20\n      add\n      dup1\n      dup4\n      gt\n      tag_39\n      jumpi\n      dup3\n      swap1\n      sub\n      0x1f\n      and\n      dup3\n      add\n      swap2\n    tag_37:\n      pop\n      pop\n      pop\n      pop\n      pop\n      dup2\n      mstore\n      0x20\n      add\n      0x02\n      dup3\n      add\n      dup1\n      sload\n      tag_40\n      swap1\n      tag_30\n      jump\t// in\n    tag_40:\n      dup1\n      0x1f\n      add\n      0x20\n      dup1\n      swap2\n      div\n      mul\n      0x20\n      add\n      mload(0x40)\n      swap1\n      dup2\n      add\n      0x40\n      mstore\n      dup1\n      swap3\n      swap2\n      swap1\n      dup2\n      dup2\n      mstore\n      0x20\n      add\n      dup3\n      dup1\n      sload\n      tag_41\n      swap1\n      tag_30\n      jump\t// in\n    tag_41:\n      dup1\n      iszero\n      tag_42\n      jumpi\n      dup1\n      0x1f\n      lt\n      tag_43\n      jumpi\n      0x0100\n      dup1\n      dup4\n      sload\n      div\n      mul\n      dup4\n      mstore\n      swap2\n      0x20\n      add\n      swap2\n      jump(tag_42)\n    tag_43:\n      dup3\n      add\n      swap2\n      swap1\n      0x00\n      mstore\n      keccak256(0x00, 0x20)\n      swap1\n    tag_44:\n      dup2\n      sload\n      dup2\n      mstore\n      swap1\n      0x01\n      add\n      swap1\n      0x20\n      add\n      dup1\n      dup4\n      gt\n      tag_44\n      jumpi\n      dup3\n      swap1\n      sub\n      0x1f\n      and\n      dup3\n      add\n      swap2\n    tag_42:\n      pop\n      pop\n      pop\n      pop\n      pop\n      dup2\n      mstore\n      pop\n      pop\n      swap1\n      pop\n        /* \"MusicList.sol\":1049:1053  song */\n      dup1\n        /* \"MusicList.sol\":1049:1058  song.name */\n      0x00\n      add\n      mload\n        /* \"MusicList.sol\":1072:1076  song */\n      dup2\n        /* \"MusicList.sol\":1072:1087  song.artistName */\n      0x20\n      add\n      mload\n        /* \"MusicList.sol\":1101:1105  song */\n      dup3\n        /* \"MusicList.sol\":1101:1109  song.url */\n      0x40\n      add\n      mload\n        /* \"MusicList.sol\":1028:1119  return (... */\n      swap4\n      pop\n      swap4\n      pop\n      swap4\n      pop\n      pop\n        /* \"MusicList.sol\":868:1126  function getSong(uint index) external view returns (string memory, string memory, string memory) {... */\n      swap2\n      swap4\n      swap1\n      swap3\n      pop\n      jump\t// out\n        /* \"MusicList.sol\":1132:1230  function getSongCount() external view returns(uint) {... */\n    tag_14:\n        /* \"MusicList.sol\":1178:1182  uint */\n      0x00\n        /* \"MusicList.sol\":1201:1211  songsCount */\n      0x01\n        /* \"MusicList.sol\":1201:1223  songsCount[msg.sender] */\n      0x00\n        /* \"MusicList.sol\":1212:1222  msg.sender */\n      caller\n        /* \"MusicList.sol\":1201:1223  songsCount[msg.sender] */\n      0xffffffffffffffffffffffffffffffffffffffff\n      and\n      0xffffffffffffffffffffffffffffffffffffffff\n      and\n      dup2\n      mstore\n      0x20\n      add\n      swap1\n      dup2\n      mstore\n      0x20\n      add\n      0x00\n      keccak256\n      sload\n        /* \"MusicList.sol\":1194:1223  return songsCount[msg.sender] */\n      swap1\n      pop\n        /* \"MusicList.sol\":1132:1230  function getSongCount() external view returns(uint) {... */\n      swap1\n      jump\t// out\n        /* \"MusicList.sol\":276:577  function addSong(string memory name, string memory artistName, string memory url) external {... */\n    tag_20:\n        /* \"MusicList.sol\":377:393  Song memory song */\n      0x00\n        /* \"MusicList.sol\":396:494  Song({... */\n      mload(0x40)\n      dup1\n      0x60\n      add\n      0x40\n      mstore\n      dup1\n        /* \"MusicList.sol\":421:425  name */\n      dup6\n        /* \"MusicList.sol\":396:494  Song({... */\n      dup2\n      mstore\n      0x20\n      add\n        /* \"MusicList.sol\":451:461  artistName */\n      dup5\n        /* \"MusicList.sol\":396:494  Song({... */\n      dup2\n      mstore\n      0x20\n      add\n        /* \"MusicList.sol\":480:483  url */\n      dup4\n        /* \"MusicList.sol\":396:494  Song({... */\n      dup2\n      mstore\n      pop\n        /* \"MusicList.sol\":377:494  Song memory song = Song({... */\n      swap1\n      pop\n        /* \"MusicList.sol\":505:510  songs */\n      0x00\n        /* \"MusicList.sol\":505:522  songs[msg.sender] */\n      dup1\n        /* \"MusicList.sol\":511:521  msg.sender */\n      caller\n        /* \"MusicList.sol\":505:522  songs[msg.sender] */\n      0xffffffffffffffffffffffffffffffffffffffff\n      and\n      0xffffffffffffffffffffffffffffffffffffffff\n      and\n      dup2\n      mstore\n      0x20\n      add\n      swap1\n      dup2\n      mstore\n      0x20\n      add\n      0x00\n      keccak256\n        /* \"MusicList.sol\":528:532  song */\n      dup2\n        /* \"MusicList.sol\":505:533  songs[msg.sender].push(song) */\n      swap1\n      dup1\n      0x01\n      dup2\n      sload\n      add\n      dup1\n      dup3\n      sstore\n      dup1\n      swap2\n      pop\n      pop\n      0x01\n      swap1\n      sub\n      swap1\n      0x00\n      mstore\n      keccak256(0x00, 0x20)\n      swap1\n      0x03\n      mul\n      add\n      0x00\n      swap1\n      swap2\n      swap1\n      swap2\n      swap1\n      swap2\n      pop\n      0x00\n      dup3\n      add\n      mload\n      dup2\n      0x00\n      add\n      swap1\n      dup1\n      mload\n      swap1\n      0x20\n      add\n      swap1\n      tag_48\n      swap3\n      swap2\n      swap1\n      tag_49\n      jump\t// in\n    tag_48:\n      pop\n      0x20\n      dup3\n      add\n      mload\n      dup2\n      0x01\n      add\n      swap1\n      dup1\n      mload\n      swap1\n      0x20\n      add\n      swap1\n      tag_50\n      swap3\n      swap2\n      swap1\n      tag_49\n      jump\t// in\n    tag_50:\n      pop\n      0x40\n      dup3\n      add\n      mload\n      dup2\n      0x02\n      add\n      swap1\n      dup1\n      mload\n      swap1\n      0x20\n      add\n      swap1\n      tag_51\n      swap3\n      swap2\n      swap1\n      tag_49\n      jump\t// in\n    tag_51:\n      pop\n      pop\n      pop\n        /* \"MusicList.sol\":569:570  1 */\n      0x01\n        /* \"MusicList.sol\":543:553  songsCount */\n      dup1\n        /* \"MusicList.sol\":543:565  songsCount[msg.sender] */\n      0x00\n        /* \"MusicList.sol\":554:564  msg.sender */\n      caller\n        /* \"MusicList.sol\":543:565  songsCount[msg.sender] */\n      0xffffffffffffffffffffffffffffffffffffffff\n      and\n      0xffffffffffffffffffffffffffffffffffffffff\n      and\n      dup2\n      mstore\n      0x20\n      add\n      swap1\n      dup2\n      mstore\n      0x20\n      add\n      0x00\n      keccak256\n      0x00\n        /* \"MusicList.sol\":543:570  songsCount[msg.sender] += 1 */\n      dup3\n      dup3\n      sload\n      tag_52\n      swap2\n      swap1\n      tag_53\n      jump\t// in\n    tag_52:\n      swap3\n      pop\n      pop\n      dup2\n      swap1\n      sstore\n      pop\n        /* \"MusicList.sol\":367:577  {... */\n      pop\n        /* \"MusicList.sol\":276:577  function addSong(string memory name, string memory artistName, string memory url) external {... */\n      pop\n      pop\n      pop\n      jump\t// out\n        /* \"MusicList.sol\":583:862  function removeSong(uint index) external {... */\n    tag_23:\n        /* \"MusicList.sol\":650:660  songsCount */\n      0x01\n        /* \"MusicList.sol\":650:672  songsCount[msg.sender] */\n      0x00\n        /* \"MusicList.sol\":661:671  msg.sender */\n      caller\n        /* \"MusicList.sol\":650:672  songsCount[msg.sender] */\n      0xffffffffffffffffffffffffffffffffffffffff\n      and\n      0xffffffffffffffffffffffffffffffffffffffff\n      and\n      dup2\n      mstore\n      0x20\n      add\n      swap1\n      dup2\n      mstore\n      0x20\n      add\n      0x00\n      keccak256\n      sload\n        /* \"MusicList.sol\":642:647  index */\n      dup2\n        /* \"MusicList.sol\":642:672  index < songsCount[msg.sender] */\n      lt\n        /* \"MusicList.sol\":634:673  require(index < songsCount[msg.sender]) */\n      tag_55\n      jumpi\n      0x00\n      dup1\n      revert\n    tag_55:\n        /* \"MusicList.sol\":684:709  Song[] storage songsArray */\n      0x00\n        /* \"MusicList.sol\":712:717  songs */\n      dup1\n        /* \"MusicList.sol\":712:729  songs[msg.sender] */\n      0x00\n        /* \"MusicList.sol\":718:728  msg.sender */\n      caller\n        /* \"MusicList.sol\":712:729  songs[msg.sender] */\n      0xffffffffffffffffffffffffffffffffffffffff\n      and\n      0xffffffffffffffffffffffffffffffffffffffff\n      and\n      dup2\n      mstore\n      0x20\n      add\n      swap1\n      dup2\n      mstore\n      0x20\n      add\n      0x00\n      keccak256\n        /* \"MusicList.sol\":684:729  Song[] storage songsArray = songs[msg.sender] */\n      swap1\n      pop\n        /* \"MusicList.sol\":759:769  songsArray */\n      dup1\n        /* \"MusicList.sol\":790:791  1 */\n      0x01\n        /* \"MusicList.sol\":770:780  songsArray */\n      dup3\n        /* \"MusicList.sol\":770:787  songsArray.length */\n      dup1\n      sload\n      swap1\n      pop\n        /* \"MusicList.sol\":770:791  songsArray.length - 1 */\n      tag_56\n      swap2\n      swap1\n      tag_57\n      jump\t// in\n    tag_56:\n        /* \"MusicList.sol\":759:792  songsArray[songsArray.length - 1] */\n      dup2\n      sload\n      dup2\n      lt\n      tag_58\n      jumpi\n      tag_59\n      tag_27\n      jump\t// in\n    tag_59:\n    tag_58:\n      swap1\n      0x00\n      mstore\n      keccak256(0x00, 0x20)\n      swap1\n      0x03\n      mul\n      add\n        /* \"MusicList.sol\":739:749  songsArray */\n      dup2\n        /* \"MusicList.sol\":750:755  index */\n      dup4\n        /* \"MusicList.sol\":739:756  songsArray[index] */\n      dup2\n      sload\n      dup2\n      lt\n      tag_61\n      jumpi\n      tag_62\n      tag_27\n      jump\t// in\n    tag_62:\n    tag_61:\n      swap1\n      0x00\n      mstore\n      keccak256(0x00, 0x20)\n      swap1\n      0x03\n      mul\n      add\n        /* \"MusicList.sol\":739:792  songsArray[index] = songsArray[songsArray.length - 1] */\n      0x00\n      dup3\n      add\n      dup2\n      0x00\n      add\n      swap1\n      dup1\n      sload\n      tag_64\n      swap1\n      tag_30\n      jump\t// in\n    tag_64:\n      tag_65\n      swap3\n      swap2\n      swap1\n      tag_66\n      jump\t// in\n    tag_65:\n      pop\n      0x01\n      dup3\n      add\n      dup2\n      0x01\n      add\n      swap1\n      dup1\n      sload\n      tag_67\n      swap1\n      tag_30\n      jump\t// in\n    tag_67:\n      tag_68\n      swap3\n      swap2\n      swap1\n      tag_66\n      jump\t// in\n    tag_68:\n      pop\n      0x02\n      dup3\n      add\n      dup2\n      0x02\n      add\n      swap1\n      dup1\n      sload\n      tag_69\n      swap1\n      tag_30\n      jump\t// in\n    tag_69:\n      tag_70\n      swap3\n      swap2\n      swap1\n      tag_66\n      jump\t// in\n    tag_70:\n      pop\n      swap1\n      pop\n      pop\n        /* \"MusicList.sol\":802:812  songsArray */\n      dup1\n        /* \"MusicList.sol\":802:818  songsArray.pop() */\n      dup1\n      sload\n      dup1\n      tag_71\n      jumpi\n      tag_72\n      tag_73\n      jump\t// in\n    tag_72:\n    tag_71:\n      0x01\n      swap1\n      sub\n      dup2\n      dup2\n      swap1\n      0x00\n      mstore\n      keccak256(0x00, 0x20)\n      swap1\n      0x03\n      mul\n      add\n      0x00\n      dup1\n      dup3\n      add\n      0x00\n      tag_75\n      swap2\n      swap1\n      tag_76\n      jump\t// in\n    tag_75:\n      0x01\n      dup3\n      add\n      0x00\n      tag_77\n      swap2\n      swap1\n      tag_76\n      jump\t// in\n    tag_77:\n      0x02\n      dup3\n      add\n      0x00\n      tag_78\n      swap2\n      swap1\n      tag_76\n      jump\t// in\n    tag_78:\n      pop\n      pop\n      swap1\n      sstore\n        /* \"MusicList.sol\":854:855  1 */\n      0x01\n        /* \"MusicList.sol\":828:838  songsCount */\n      dup1\n        /* \"MusicList.sol\":828:850  songsCount[msg.sender] */\n      0x00\n        /* \"MusicList.sol\":839:849  msg.sender */\n      caller\n        /* \"MusicList.sol\":828:850  songsCount[msg.sender] */\n      0xffffffffffffffffffffffffffffffffffffffff\n      and\n      0xffffffffffffffffffffffffffffffffffffffff\n      and\n      dup2\n      mstore\n      0x20\n      add\n      swap1\n      dup2\n      mstore\n      0x20\n      add\n      0x00\n      keccak256\n      0x00\n        /* \"MusicList.sol\":828:855  songsCount[msg.sender] -= 1 */\n      dup3\n      dup3\n      sload\n      tag_79\n      swap2\n      swap1\n      tag_57\n      jump\t// in\n    tag_79:\n      swap3\n      pop\n      pop\n      dup2\n      swap1\n      sstore\n      pop\n        /* \"MusicList.sol\":624:862  {... */\n      pop\n        /* \"MusicList.sol\":583:862  function removeSong(uint index) external {... */\n      pop\n      jump\t// out\n    tag_49:\n      dup3\n      dup1\n      sload\n      tag_80\n      swap1\n      tag_30\n      jump\t// in\n    tag_80:\n      swap1\n      0x00\n      mstore\n      keccak256(0x00, 0x20)\n      swap1\n      0x1f\n      add\n      0x20\n      swap1\n      div\n      dup2\n      add\n      swap3\n      dup3\n      tag_82\n      jumpi\n      0x00\n      dup6\n      sstore\n      jump(tag_81)\n    tag_82:\n      dup3\n      0x1f\n      lt\n      tag_83\n      jumpi\n      dup1\n      mload\n      not(0xff)\n      and\n      dup4\n      dup1\n      add\n      or\n      dup6\n      sstore\n      jump(tag_81)\n    tag_83:\n      dup3\n      dup1\n      add\n      0x01\n      add\n      dup6\n      sstore\n      dup3\n      iszero\n      tag_81\n      jumpi\n      swap2\n      dup3\n      add\n    tag_84:\n      dup3\n      dup2\n      gt\n      iszero\n      tag_85\n      jumpi\n      dup3\n      mload\n      dup3\n      sstore\n      swap2\n      0x20\n      add\n      swap2\n      swap1\n      0x01\n      add\n      swap1\n      jump(tag_84)\n    tag_85:\n    tag_81:\n      pop\n      swap1\n      pop\n      tag_86\n      swap2\n      swap1\n      tag_87\n      jump\t// in\n    tag_86:\n      pop\n      swap1\n      jump\t// out\n    tag_66:\n      dup3\n      dup1\n      sload\n      tag_88\n      swap1\n      tag_30\n      jump\t// in\n    tag_88:\n      swap1\n      0x00\n      mstore\n      keccak256(0x00, 0x20)\n      swap1\n      0x1f\n      add\n      0x20\n      swap1\n      div\n      dup2\n      add\n      swap3\n      dup3\n      tag_90\n      jumpi\n      0x00\n      dup6\n      sstore\n      jump(tag_89)\n    tag_90:\n      dup3\n      0x1f\n      lt\n      tag_91\n      jumpi\n      dup1\n      sload\n      dup6\n      sstore\n      jump(tag_89)\n    tag_91:\n      dup3\n      dup1\n      add\n      0x01\n      add\n      dup6\n      sstore\n      dup3\n      iszero\n      tag_89\n      jumpi\n      0x00\n      mstore\n      keccak256(0x00, 0x20)\n      swap2\n      0x1f\n      add\n      0x20\n      swap1\n      div\n      dup3\n      add\n    tag_92:\n      dup3\n      dup2\n      gt\n      iszero\n      tag_93\n      jumpi\n      dup3\n      sload\n      dup3\n      sstore\n      swap2\n      0x01\n      add\n      swap2\n      swap1\n      0x01\n      add\n      swap1\n      jump(tag_92)\n    tag_93:\n    tag_89:\n      pop\n      swap1\n      pop\n      tag_94\n      swap2\n      swap1\n      tag_87\n      jump\t// in\n    tag_94:\n      pop\n      swap1\n      jump\t// out\n    tag_76:\n      pop\n      dup1\n      sload\n      tag_95\n      swap1\n      tag_30\n      jump\t// in\n    tag_95:\n      0x00\n      dup3\n      sstore\n      dup1\n      0x1f\n      lt\n      tag_97\n      jumpi\n      pop\n      jump(tag_96)\n    tag_97:\n      0x1f\n      add\n      0x20\n      swap1\n      div\n      swap1\n      0x00\n      mstore\n      keccak256(0x00, 0x20)\n      swap1\n      dup2\n      add\n      swap1\n      tag_98\n      swap2\n      swap1\n      tag_87\n      jump\t// in\n    tag_98:\n    tag_96:\n      pop\n      jump\t// out\n    tag_87:\n    tag_99:\n      dup1\n      dup3\n      gt\n      iszero\n      tag_100\n      jumpi\n      0x00\n      dup2\n      0x00\n      swap1\n      sstore\n      pop\n      0x01\n      add\n      jump(tag_99)\n    tag_100:\n      pop\n      swap1\n      jump\t// out\n        /* \"#utility.yul\":7:82   */\n    tag_101:\n        /* \"#utility.yul\":40:46   */\n      0x00\n        /* \"#utility.yul\":73:75   */\n      0x40\n        /* \"#utility.yul\":67:76   */\n      mload\n        /* \"#utility.yul\":57:76   */\n      swap1\n      pop\n        /* \"#utility.yul\":7:82   */\n      swap1\n      jump\t// out\n        /* \"#utility.yul\":88:205   */\n    tag_102:\n        /* \"#utility.yul\":197:198   */\n      0x00\n        /* \"#utility.yul\":194:195   */\n      dup1\n        /* \"#utility.yul\":187:199   */\n      revert\n        /* \"#utility.yul\":211:328   */\n    tag_103:\n        /* \"#utility.yul\":320:321   */\n      0x00\n        /* \"#utility.yul\":317:318   */\n      dup1\n        /* \"#utility.yul\":310:322   */\n      revert\n        /* \"#utility.yul\":334:411   */\n    tag_104:\n        /* \"#utility.yul\":371:378   */\n      0x00\n        /* \"#utility.yul\":400:405   */\n      dup2\n        /* \"#utility.yul\":389:405   */\n      swap1\n      pop\n        /* \"#utility.yul\":334:411   */\n      swap2\n      swap1\n      pop\n      jump\t// out\n        /* \"#utility.yul\":417:539   */\n    tag_105:\n        /* \"#utility.yul\":490:514   */\n      tag_130\n        /* \"#utility.yul\":508:513   */\n      dup2\n        /* \"#utility.yul\":490:514   */\n      tag_104\n      jump\t// in\n    tag_130:\n        /* \"#utility.yul\":483:488   */\n      dup2\n        /* \"#utility.yul\":480:515   */\n      eq\n        /* \"#utility.yul\":470:533   */\n      tag_131\n      jumpi\n        /* \"#utility.yul\":529:530   */\n      0x00\n        /* \"#utility.yul\":526:527   */\n      dup1\n        /* \"#utility.yul\":519:531   */\n      revert\n        /* \"#utility.yul\":470:533   */\n    tag_131:\n        /* \"#utility.yul\":417:539   */\n      pop\n      jump\t// out\n        /* \"#utility.yul\":545:684   */\n    tag_106:\n        /* \"#utility.yul\":591:596   */\n      0x00\n        /* \"#utility.yul\":629:635   */\n      dup2\n        /* \"#utility.yul\":616:636   */\n      calldataload\n        /* \"#utility.yul\":607:636   */\n      swap1\n      pop\n        /* \"#utility.yul\":645:678   */\n      tag_133\n        /* \"#utility.yul\":672:677   */\n      dup2\n        /* \"#utility.yul\":645:678   */\n      tag_105\n      jump\t// in\n    tag_133:\n        /* \"#utility.yul\":545:684   */\n      swap3\n      swap2\n      pop\n      pop\n      jump\t// out\n        /* \"#utility.yul\":690:1019   */\n    tag_9:\n        /* \"#utility.yul\":749:755   */\n      0x00\n        /* \"#utility.yul\":798:800   */\n      0x20\n        /* \"#utility.yul\":786:795   */\n      dup3\n        /* \"#utility.yul\":777:784   */\n      dup5\n        /* \"#utility.yul\":773:796   */\n      sub\n        /* \"#utility.yul\":769:801   */\n      slt\n        /* \"#utility.yul\":766:885   */\n      iszero\n      tag_135\n      jumpi\n        /* \"#utility.yul\":804:883   */\n      tag_136\n      tag_102\n      jump\t// in\n    tag_136:\n        /* \"#utility.yul\":766:885   */\n    tag_135:\n        /* \"#utility.yul\":924:925   */\n      0x00\n        /* \"#utility.yul\":949:1002   */\n      tag_137\n        /* \"#utility.yul\":994:1001   */\n      dup5\n        /* \"#utility.yul\":985:991   */\n      dup3\n        /* \"#utility.yul\":974:983   */\n      dup6\n        /* \"#utility.yul\":970:992   */\n      add\n        /* \"#utility.yul\":949:1002   */\n      tag_106\n      jump\t// in\n    tag_137:\n        /* \"#utility.yul\":939:1002   */\n      swap2\n      pop\n        /* \"#utility.yul\":895:1012   */\n      pop\n        /* \"#utility.yul\":690:1019   */\n      swap3\n      swap2\n      pop\n      pop\n      jump\t// out\n        /* \"#utility.yul\":1025:1124   */\n    tag_107:\n        /* \"#utility.yul\":1077:1083   */\n      0x00\n        /* \"#utility.yul\":1111:1116   */\n      dup2\n        /* \"#utility.yul\":1105:1117   */\n      mload\n        /* \"#utility.yul\":1095:1117   */\n      swap1\n      pop\n        /* \"#utility.yul\":1025:1124   */\n      swap2\n      swap1\n      pop\n      jump\t// out\n        /* \"#utility.yul\":1130:1299   */\n    tag_108:\n        /* \"#utility.yul\":1214:1225   */\n      0x00\n        /* \"#utility.yul\":1248:1254   */\n      dup3\n        /* \"#utility.yul\":1243:1246   */\n      dup3\n        /* \"#utility.yul\":1236:1255   */\n      mstore\n        /* \"#utility.yul\":1288:1292   */\n      0x20\n        /* \"#utility.yul\":1283:1286   */\n      dup3\n        /* \"#utility.yul\":1279:1293   */\n      add\n        /* \"#utility.yul\":1264:1293   */\n      swap1\n      pop\n        /* \"#utility.yul\":1130:1299   */\n      swap3\n      swap2\n      pop\n      pop\n      jump\t// out\n        /* \"#utility.yul\":1305:1612   */\n    tag_109:\n        /* \"#utility.yul\":1373:1374   */\n      0x00\n        /* \"#utility.yul\":1383:1496   */\n    tag_141:\n        /* \"#utility.yul\":1397:1403   */\n      dup4\n        /* \"#utility.yul\":1394:1395   */\n      dup2\n        /* \"#utility.yul\":1391:1404   */\n      lt\n        /* \"#utility.yul\":1383:1496   */\n      iszero\n      tag_143\n      jumpi\n        /* \"#utility.yul\":1482:1483   */\n      dup1\n        /* \"#utility.yul\":1477:1480   */\n      dup3\n        /* \"#utility.yul\":1473:1484   */\n      add\n        /* \"#utility.yul\":1467:1485   */\n      mload\n        /* \"#utility.yul\":1463:1464   */\n      dup2\n        /* \"#utility.yul\":1458:1461   */\n      dup5\n        /* \"#utility.yul\":1454:1465   */\n      add\n        /* \"#utility.yul\":1447:1486   */\n      mstore\n        /* \"#utility.yul\":1419:1421   */\n      0x20\n        /* \"#utility.yul\":1416:1417   */\n      dup2\n        /* \"#utility.yul\":1412:1422   */\n      add\n        /* \"#utility.yul\":1407:1422   */\n      swap1\n      pop\n        /* \"#utility.yul\":1383:1496   */\n      jump(tag_141)\n    tag_143:\n        /* \"#utility.yul\":1514:1520   */\n      dup4\n        /* \"#utility.yul\":1511:1512   */\n      dup2\n        /* \"#utility.yul\":1508:1521   */\n      gt\n        /* \"#utility.yul\":1505:1606   */\n      iszero\n      tag_144\n      jumpi\n        /* \"#utility.yul\":1594:1595   */\n      0x00\n        /* \"#utility.yul\":1585:1591   */\n      dup5\n        /* \"#utility.yul\":1580:1583   */\n      dup5\n        /* \"#utility.yul\":1576:1592   */\n      add\n        /* \"#utility.yul\":1569:1596   */\n      mstore\n        /* \"#utility.yul\":1505:1606   */\n    tag_144:\n        /* \"#utility.yul\":1354:1612   */\n      pop\n        /* \"#utility.yul\":1305:1612   */\n      pop\n      pop\n      pop\n      jump\t// out\n        /* \"#utility.yul\":1618:1720   */\n    tag_110:\n        /* \"#utility.yul\":1659:1665   */\n      0x00\n        /* \"#utility.yul\":1710:1712   */\n      0x1f\n        /* \"#utility.yul\":1706:1713   */\n      not\n        /* \"#utility.yul\":1701:1703   */\n      0x1f\n        /* \"#utility.yul\":1694:1699   */\n      dup4\n        /* \"#utility.yul\":1690:1704   */\n      add\n        /* \"#utility.yul\":1686:1714   */\n      and\n        /* \"#utility.yul\":1676:1714   */\n      swap1\n      pop\n        /* \"#utility.yul\":1618:1720   */\n      swap2\n      swap1\n      pop\n      jump\t// out\n        /* \"#utility.yul\":1726:2090   */\n    tag_111:\n        /* \"#utility.yul\":1814:1817   */\n      0x00\n        /* \"#utility.yul\":1842:1881   */\n      tag_147\n        /* \"#utility.yul\":1875:1880   */\n      dup3\n        /* \"#utility.yul\":1842:1881   */\n      tag_107\n      jump\t// in\n    tag_147:\n        /* \"#utility.yul\":1897:1968   */\n      tag_148\n        /* \"#utility.yul\":1961:1967   */\n      dup2\n        /* \"#utility.yul\":1956:1959   */\n      dup6\n        /* \"#utility.yul\":1897:1968   */\n      tag_108\n      jump\t// in\n    tag_148:\n        /* \"#utility.yul\":1890:1968   */\n      swap4\n      pop\n        /* \"#utility.yul\":1977:2029   */\n      tag_149\n        /* \"#utility.yul\":2022:2028   */\n      dup2\n        /* \"#utility.yul\":2017:2020   */\n      dup6\n        /* \"#utility.yul\":2010:2014   */\n      0x20\n        /* \"#utility.yul\":2003:2008   */\n      dup7\n        /* \"#utility.yul\":1999:2015   */\n      add\n        /* \"#utility.yul\":1977:2029   */\n      tag_109\n      jump\t// in\n    tag_149:\n        /* \"#utility.yul\":2054:2083   */\n      tag_150\n        /* \"#utility.yul\":2076:2082   */\n      dup2\n        /* \"#utility.yul\":2054:2083   */\n      tag_110\n      jump\t// in\n    tag_150:\n        /* \"#utility.yul\":2049:2052   */\n      dup5\n        /* \"#utility.yul\":2045:2084   */\n      add\n        /* \"#utility.yul\":2038:2084   */\n      swap2\n      pop\n        /* \"#utility.yul\":1818:2090   */\n      pop\n        /* \"#utility.yul\":1726:2090   */\n      swap3\n      swap2\n      pop\n      pop\n      jump\t// out\n        /* \"#utility.yul\":2096:2811   */\n    tag_12:\n        /* \"#utility.yul\":2305:2309   */\n      0x00\n        /* \"#utility.yul\":2343:2345   */\n      0x60\n        /* \"#utility.yul\":2332:2341   */\n      dup3\n        /* \"#utility.yul\":2328:2346   */\n      add\n        /* \"#utility.yul\":2320:2346   */\n      swap1\n      pop\n        /* \"#utility.yul\":2392:2401   */\n      dup2\n        /* \"#utility.yul\":2386:2390   */\n      dup2\n        /* \"#utility.yul\":2382:2402   */\n      sub\n        /* \"#utility.yul\":2378:2379   */\n      0x00\n        /* \"#utility.yul\":2367:2376   */\n      dup4\n        /* \"#utility.yul\":2363:2380   */\n      add\n        /* \"#utility.yul\":2356:2403   */\n      mstore\n        /* \"#utility.yul\":2420:2498   */\n      tag_152\n        /* \"#utility.yul\":2493:2497   */\n      dup2\n        /* \"#utility.yul\":2484:2490   */\n      dup7\n        /* \"#utility.yul\":2420:2498   */\n      tag_111\n      jump\t// in\n    tag_152:\n        /* \"#utility.yul\":2412:2498   */\n      swap1\n      pop\n        /* \"#utility.yul\":2545:2554   */\n      dup2\n        /* \"#utility.yul\":2539:2543   */\n      dup2\n        /* \"#utility.yul\":2535:2555   */\n      sub\n        /* \"#utility.yul\":2530:2532   */\n      0x20\n        /* \"#utility.yul\":2519:2528   */\n      dup4\n        /* \"#utility.yul\":2515:2533   */\n      add\n        /* \"#utility.yul\":2508:2556   */\n      mstore\n        /* \"#utility.yul\":2573:2651   */\n      tag_153\n        /* \"#utility.yul\":2646:2650   */\n      dup2\n        /* \"#utility.yul\":2637:2643   */\n      dup6\n        /* \"#utility.yul\":2573:2651   */\n      tag_111\n      jump\t// in\n    tag_153:\n        /* \"#utility.yul\":2565:2651   */\n      swap1\n      pop\n        /* \"#utility.yul\":2698:2707   */\n      dup2\n        /* \"#utility.yul\":2692:2696   */\n      dup2\n        /* \"#utility.yul\":2688:2708   */\n      sub\n        /* \"#utility.yul\":2683:2685   */\n      0x40\n        /* \"#utility.yul\":2672:2681   */\n      dup4\n        /* \"#utility.yul\":2668:2686   */\n      add\n        /* \"#utility.yul\":2661:2709   */\n      mstore\n        /* \"#utility.yul\":2726:2804   */\n      tag_154\n        /* \"#utility.yul\":2799:2803   */\n      dup2\n        /* \"#utility.yul\":2790:2796   */\n      dup5\n        /* \"#utility.yul\":2726:2804   */\n      tag_111\n      jump\t// in\n    tag_154:\n        /* \"#utility.yul\":2718:2804   */\n      swap1\n      pop\n        /* \"#utility.yul\":2096:2811   */\n      swap5\n      swap4\n      pop\n      pop\n      pop\n      pop\n      jump\t// out\n        /* \"#utility.yul\":2817:2935   */\n    tag_112:\n        /* \"#utility.yul\":2904:2928   */\n      tag_156\n        /* \"#utility.yul\":2922:2927   */\n      dup2\n        /* \"#utility.yul\":2904:2928   */\n      tag_104\n      jump\t// in\n    tag_156:\n        /* \"#utility.yul\":2899:2902   */\n      dup3\n        /* \"#utility.yul\":2892:2929   */\n      mstore\n        /* \"#utility.yul\":2817:2935   */\n      pop\n      pop\n      jump\t// out\n        /* \"#utility.yul\":2941:3163   */\n    tag_16:\n        /* \"#utility.yul\":3034:3038   */\n      0x00\n        /* \"#utility.yul\":3072:3074   */\n      0x20\n        /* \"#utility.yul\":3061:3070   */\n      dup3\n        /* \"#utility.yul\":3057:3075   */\n      add\n        /* \"#utility.yul\":3049:3075   */\n      swap1\n      pop\n        /* \"#utility.yul\":3085:3156   */\n      tag_158\n        /* \"#utility.yul\":3153:3154   */\n      0x00\n        /* \"#utility.yul\":3142:3151   */\n      dup4\n        /* \"#utility.yul\":3138:3155   */\n      add\n        /* \"#utility.yul\":3129:3135   */\n      dup5\n        /* \"#utility.yul\":3085:3156   */\n      tag_112\n      jump\t// in\n    tag_158:\n        /* \"#utility.yul\":2941:3163   */\n      swap3\n      swap2\n      pop\n      pop\n      jump\t// out\n        /* \"#utility.yul\":3169:3286   */\n    tag_113:\n        /* \"#utility.yul\":3278:3279   */\n      0x00\n        /* \"#utility.yul\":3275:3276   */\n      dup1\n        /* \"#utility.yul\":3268:3280   */\n      revert\n        /* \"#utility.yul\":3292:3409   */\n    tag_114:\n        /* \"#utility.yul\":3401:3402   */\n      0x00\n        /* \"#utility.yul\":3398:3399   */\n      dup1\n        /* \"#utility.yul\":3391:3403   */\n      revert\n        /* \"#utility.yul\":3415:3595   */\n    tag_115:\n        /* \"#utility.yul\":3463:3540   */\n      0x4e487b7100000000000000000000000000000000000000000000000000000000\n        /* \"#utility.yul\":3460:3461   */\n      0x00\n        /* \"#utility.yul\":3453:3541   */\n      mstore\n        /* \"#utility.yul\":3560:3564   */\n      0x41\n        /* \"#utility.yul\":3557:3558   */\n      0x04\n        /* \"#utility.yul\":3550:3565   */\n      mstore\n        /* \"#utility.yul\":3584:3588   */\n      0x24\n        /* \"#utility.yul\":3581:3582   */\n      0x00\n        /* \"#utility.yul\":3574:3589   */\n      revert\n        /* \"#utility.yul\":3601:3882   */\n    tag_116:\n        /* \"#utility.yul\":3684:3711   */\n      tag_163\n        /* \"#utility.yul\":3706:3710   */\n      dup3\n        /* \"#utility.yul\":3684:3711   */\n      tag_110\n      jump\t// in\n    tag_163:\n        /* \"#utility.yul\":3676:3682   */\n      dup2\n        /* \"#utility.yul\":3672:3712   */\n      add\n        /* \"#utility.yul\":3814:3820   */\n      dup2\n        /* \"#utility.yul\":3802:3812   */\n      dup2\n        /* \"#utility.yul\":3799:3821   */\n      lt\n        /* \"#utility.yul\":3778:3796   */\n      0xffffffffffffffff\n        /* \"#utility.yul\":3766:3776   */\n      dup3\n        /* \"#utility.yul\":3763:3797   */\n      gt\n        /* \"#utility.yul\":3760:3822   */\n      or\n        /* \"#utility.yul\":3757:3845   */\n      iszero\n      tag_164\n      jumpi\n        /* \"#utility.yul\":3825:3843   */\n      tag_165\n      tag_115\n      jump\t// in\n    tag_165:\n        /* \"#utility.yul\":3757:3845   */\n    tag_164:\n        /* \"#utility.yul\":3865:3875   */\n      dup1\n        /* \"#utility.yul\":3861:3863   */\n      0x40\n        /* \"#utility.yul\":3854:3876   */\n      mstore\n        /* \"#utility.yul\":3644:3882   */\n      pop\n        /* \"#utility.yul\":3601:3882   */\n      pop\n      pop\n      jump\t// out\n        /* \"#utility.yul\":3888:4017   */\n    tag_117:\n        /* \"#utility.yul\":3922:3928   */\n      0x00\n        /* \"#utility.yul\":3949:3969   */\n      tag_167\n      tag_101\n      jump\t// in\n    tag_167:\n        /* \"#utility.yul\":3939:3969   */\n      swap1\n      pop\n        /* \"#utility.yul\":3978:4011   */\n      tag_168\n        /* \"#utility.yul\":4006:4010   */\n      dup3\n        /* \"#utility.yul\":3998:4004   */\n      dup3\n        /* \"#utility.yul\":3978:4011   */\n      tag_116\n      jump\t// in\n    tag_168:\n        /* \"#utility.yul\":3888:4017   */\n      swap2\n      swap1\n      pop\n      jump\t// out\n        /* \"#utility.yul\":4023:4331   */\n    tag_118:\n        /* \"#utility.yul\":4085:4089   */\n      0x00\n        /* \"#utility.yul\":4175:4193   */\n      0xffffffffffffffff\n        /* \"#utility.yul\":4167:4173   */\n      dup3\n        /* \"#utility.yul\":4164:4194   */\n      gt\n        /* \"#utility.yul\":4161:4217   */\n      iszero\n      tag_170\n      jumpi\n        /* \"#utility.yul\":4197:4215   */\n      tag_171\n      tag_115\n      jump\t// in\n    tag_171:\n        /* \"#utility.yul\":4161:4217   */\n    tag_170:\n        /* \"#utility.yul\":4235:4264   */\n      tag_172\n        /* \"#utility.yul\":4257:4263   */\n      dup3\n        /* \"#utility.yul\":4235:4264   */\n      tag_110\n      jump\t// in\n    tag_172:\n        /* \"#utility.yul\":4227:4264   */\n      swap1\n      pop\n        /* \"#utility.yul\":4319:4323   */\n      0x20\n        /* \"#utility.yul\":4313:4317   */\n      dup2\n        /* \"#utility.yul\":4309:4324   */\n      add\n        /* \"#utility.yul\":4301:4324   */\n      swap1\n      pop\n        /* \"#utility.yul\":4023:4331   */\n      swap2\n      swap1\n      pop\n      jump\t// out\n        /* \"#utility.yul\":4337:4491   */\n    tag_119:\n        /* \"#utility.yul\":4421:4427   */\n      dup3\n        /* \"#utility.yul\":4416:4419   */\n      dup2\n        /* \"#utility.yul\":4411:4414   */\n      dup4\n        /* \"#utility.yul\":4398:4428   */\n      calldatacopy\n        /* \"#utility.yul\":4483:4484   */\n      0x00\n        /* \"#utility.yul\":4474:4480   */\n      dup4\n        /* \"#utility.yul\":4469:4472   */\n      dup4\n        /* \"#utility.yul\":4465:4481   */\n      add\n        /* \"#utility.yul\":4458:4485   */\n      mstore\n        /* \"#utility.yul\":4337:4491   */\n      pop\n      pop\n      pop\n      jump\t// out\n        /* \"#utility.yul\":4497:4909   */\n    tag_120:\n        /* \"#utility.yul\":4575:4580   */\n      0x00\n        /* \"#utility.yul\":4600:4666   */\n      tag_175\n        /* \"#utility.yul\":4616:4665   */\n      tag_176\n        /* \"#utility.yul\":4658:4664   */\n      dup5\n        /* \"#utility.yul\":4616:4665   */\n      tag_118\n      jump\t// in\n    tag_176:\n        /* \"#utility.yul\":4600:4666   */\n      tag_117\n      jump\t// in\n    tag_175:\n        /* \"#utility.yul\":4591:4666   */\n      swap1\n      pop\n        /* \"#utility.yul\":4689:4695   */\n      dup3\n        /* \"#utility.yul\":4682:4687   */\n      dup2\n        /* \"#utility.yul\":4675:4696   */\n      mstore\n        /* \"#utility.yul\":4727:4731   */\n      0x20\n        /* \"#utility.yul\":4720:4725   */\n      dup2\n        /* \"#utility.yul\":4716:4732   */\n      add\n        /* \"#utility.yul\":4765:4768   */\n      dup5\n        /* \"#utility.yul\":4756:4762   */\n      dup5\n        /* \"#utility.yul\":4751:4754   */\n      dup5\n        /* \"#utility.yul\":4747:4763   */\n      add\n        /* \"#utility.yul\":4744:4769   */\n      gt\n        /* \"#utility.yul\":4741:4853   */\n      iszero\n      tag_177\n      jumpi\n        /* \"#utility.yul\":4772:4851   */\n      tag_178\n      tag_114\n      jump\t// in\n    tag_178:\n        /* \"#utility.yul\":4741:4853   */\n    tag_177:\n        /* \"#utility.yul\":4862:4903   */\n      tag_179\n        /* \"#utility.yul\":4896:4902   */\n      dup5\n        /* \"#utility.yul\":4891:4894   */\n      dup3\n        /* \"#utility.yul\":4886:4889   */\n      dup6\n        /* \"#utility.yul\":4862:4903   */\n      tag_119\n      jump\t// in\n    tag_179:\n        /* \"#utility.yul\":4581:4909   */\n      pop\n        /* \"#utility.yul\":4497:4909   */\n      swap4\n      swap3\n      pop\n      pop\n      pop\n      jump\t// out\n        /* \"#utility.yul\":4929:5269   */\n    tag_121:\n        /* \"#utility.yul\":4985:4990   */\n      0x00\n        /* \"#utility.yul\":5034:5037   */\n      dup3\n        /* \"#utility.yul\":5027:5031   */\n      0x1f\n        /* \"#utility.yul\":5019:5025   */\n      dup4\n        /* \"#utility.yul\":5015:5032   */\n      add\n        /* \"#utility.yul\":5011:5038   */\n      slt\n        /* \"#utility.yul\":5001:5123   */\n      tag_181\n      jumpi\n        /* \"#utility.yul\":5042:5121   */\n      tag_182\n      tag_113\n      jump\t// in\n    tag_182:\n        /* \"#utility.yul\":5001:5123   */\n    tag_181:\n        /* \"#utility.yul\":5159:5165   */\n      dup2\n        /* \"#utility.yul\":5146:5166   */\n      calldataload\n        /* \"#utility.yul\":5184:5263   */\n      tag_183\n        /* \"#utility.yul\":5259:5262   */\n      dup5\n        /* \"#utility.yul\":5251:5257   */\n      dup3\n        /* \"#utility.yul\":5244:5248   */\n      0x20\n        /* \"#utility.yul\":5236:5242   */\n      dup7\n        /* \"#utility.yul\":5232:5249   */\n      add\n        /* \"#utility.yul\":5184:5263   */\n      tag_120\n      jump\t// in\n    tag_183:\n        /* \"#utility.yul\":5175:5263   */\n      swap2\n      pop\n        /* \"#utility.yul\":4991:5269   */\n      pop\n        /* \"#utility.yul\":4929:5269   */\n      swap3\n      swap2\n      pop\n      pop\n      jump\t// out\n        /* \"#utility.yul\":5275:6434   */\n    tag_19:\n        /* \"#utility.yul\":5382:5388   */\n      0x00\n        /* \"#utility.yul\":5390:5396   */\n      dup1\n        /* \"#utility.yul\":5398:5404   */\n      0x00\n        /* \"#utility.yul\":5447:5449   */\n      0x60\n        /* \"#utility.yul\":5435:5444   */\n      dup5\n        /* \"#utility.yul\":5426:5433   */\n      dup7\n        /* \"#utility.yul\":5422:5445   */\n      sub\n        /* \"#utility.yul\":5418:5450   */\n      slt\n        /* \"#utility.yul\":5415:5534   */\n      iszero\n      tag_185\n      jumpi\n        /* \"#utility.yul\":5453:5532   */\n      tag_186\n      tag_102\n      jump\t// in\n    tag_186:\n        /* \"#utility.yul\":5415:5534   */\n    tag_185:\n        /* \"#utility.yul\":5601:5602   */\n      0x00\n        /* \"#utility.yul\":5590:5599   */\n      dup5\n        /* \"#utility.yul\":5586:5603   */\n      add\n        /* \"#utility.yul\":5573:5604   */\n      calldataload\n        /* \"#utility.yul\":5631:5649   */\n      0xffffffffffffffff\n        /* \"#utility.yul\":5623:5629   */\n      dup2\n        /* \"#utility.yul\":5620:5650   */\n      gt\n        /* \"#utility.yul\":5617:5734   */\n      iszero\n      tag_187\n      jumpi\n        /* \"#utility.yul\":5653:5732   */\n      tag_188\n      tag_103\n      jump\t// in\n    tag_188:\n        /* \"#utility.yul\":5617:5734   */\n    tag_187:\n        /* \"#utility.yul\":5758:5821   */\n      tag_189\n        /* \"#utility.yul\":5813:5820   */\n      dup7\n        /* \"#utility.yul\":5804:5810   */\n      dup3\n        /* \"#utility.yul\":5793:5802   */\n      dup8\n        /* \"#utility.yul\":5789:5811   */\n      add\n        /* \"#utility.yul\":5758:5821   */\n      tag_121\n      jump\t// in\n    tag_189:\n        /* \"#utility.yul\":5748:5821   */\n      swap4\n      pop\n        /* \"#utility.yul\":5544:5831   */\n      pop\n        /* \"#utility.yul\":5898:5900   */\n      0x20\n        /* \"#utility.yul\":5887:5896   */\n      dup5\n        /* \"#utility.yul\":5883:5901   */\n      add\n        /* \"#utility.yul\":5870:5902   */\n      calldataload\n        /* \"#utility.yul\":5929:5947   */\n      0xffffffffffffffff\n        /* \"#utility.yul\":5921:5927   */\n      dup2\n        /* \"#utility.yul\":5918:5948   */\n      gt\n        /* \"#utility.yul\":5915:6032   */\n      iszero\n      tag_190\n      jumpi\n        /* \"#utility.yul\":5951:6030   */\n      tag_191\n      tag_103\n      jump\t// in\n    tag_191:\n        /* \"#utility.yul\":5915:6032   */\n    tag_190:\n        /* \"#utility.yul\":6056:6119   */\n      tag_192\n        /* \"#utility.yul\":6111:6118   */\n      dup7\n        /* \"#utility.yul\":6102:6108   */\n      dup3\n        /* \"#utility.yul\":6091:6100   */\n      dup8\n        /* \"#utility.yul\":6087:6109   */\n      add\n        /* \"#utility.yul\":6056:6119   */\n      tag_121\n      jump\t// in\n    tag_192:\n        /* \"#utility.yul\":6046:6119   */\n      swap3\n      pop\n        /* \"#utility.yul\":5841:6129   */\n      pop\n        /* \"#utility.yul\":6196:6198   */\n      0x40\n        /* \"#utility.yul\":6185:6194   */\n      dup5\n        /* \"#utility.yul\":6181:6199   */\n      add\n        /* \"#utility.yul\":6168:6200   */\n      calldataload\n        /* \"#utility.yul\":6227:6245   */\n      0xffffffffffffffff\n        /* \"#utility.yul\":6219:6225   */\n      dup2\n        /* \"#utility.yul\":6216:6246   */\n      gt\n        /* \"#utility.yul\":6213:6330   */\n      iszero\n      tag_193\n      jumpi\n        /* \"#utility.yul\":6249:6328   */\n      tag_194\n      tag_103\n      jump\t// in\n    tag_194:\n        /* \"#utility.yul\":6213:6330   */\n    tag_193:\n        /* \"#utility.yul\":6354:6417   */\n      tag_195\n        /* \"#utility.yul\":6409:6416   */\n      dup7\n        /* \"#utility.yul\":6400:6406   */\n      dup3\n        /* \"#utility.yul\":6389:6398   */\n      dup8\n        /* \"#utility.yul\":6385:6407   */\n      add\n        /* \"#utility.yul\":6354:6417   */\n      tag_121\n      jump\t// in\n    tag_195:\n        /* \"#utility.yul\":6344:6417   */\n      swap2\n      pop\n        /* \"#utility.yul\":6139:6427   */\n      pop\n        /* \"#utility.yul\":5275:6434   */\n      swap3\n      pop\n      swap3\n      pop\n      swap3\n      jump\t// out\n        /* \"#utility.yul\":6440:6620   */\n    tag_27:\n        /* \"#utility.yul\":6488:6565   */\n      0x4e487b7100000000000000000000000000000000000000000000000000000000\n        /* \"#utility.yul\":6485:6486   */\n      0x00\n        /* \"#utility.yul\":6478:6566   */\n      mstore\n        /* \"#utility.yul\":6585:6589   */\n      0x32\n        /* \"#utility.yul\":6582:6583   */\n      0x04\n        /* \"#utility.yul\":6575:6590   */\n      mstore\n        /* \"#utility.yul\":6609:6613   */\n      0x24\n        /* \"#utility.yul\":6606:6607   */\n      0x00\n        /* \"#utility.yul\":6599:6614   */\n      revert\n        /* \"#utility.yul\":6626:6806   */\n    tag_122:\n        /* \"#utility.yul\":6674:6751   */\n      0x4e487b7100000000000000000000000000000000000000000000000000000000\n        /* \"#utility.yul\":6671:6672   */\n      0x00\n        /* \"#utility.yul\":6664:6752   */\n      mstore\n        /* \"#utility.yul\":6771:6775   */\n      0x22\n        /* \"#utility.yul\":6768:6769   */\n      0x04\n        /* \"#utility.yul\":6761:6776   */\n      mstore\n        /* \"#utility.yul\":6795:6799   */\n      0x24\n        /* \"#utility.yul\":6792:6793   */\n      0x00\n        /* \"#utility.yul\":6785:6800   */\n      revert\n        /* \"#utility.yul\":6812:7132   */\n    tag_30:\n        /* \"#utility.yul\":6856:6862   */\n      0x00\n        /* \"#utility.yul\":6893:6894   */\n      0x02\n        /* \"#utility.yul\":6887:6891   */\n      dup3\n        /* \"#utility.yul\":6883:6895   */\n      div\n        /* \"#utility.yul\":6873:6895   */\n      swap1\n      pop\n        /* \"#utility.yul\":6940:6941   */\n      0x01\n        /* \"#utility.yul\":6934:6938   */\n      dup3\n        /* \"#utility.yul\":6930:6942   */\n      and\n        /* \"#utility.yul\":6961:6979   */\n      dup1\n        /* \"#utility.yul\":6951:7032   */\n      tag_199\n      jumpi\n        /* \"#utility.yul\":7017:7021   */\n      0x7f\n        /* \"#utility.yul\":7009:7015   */\n      dup3\n        /* \"#utility.yul\":7005:7022   */\n      and\n        /* \"#utility.yul\":6995:7022   */\n      swap2\n      pop\n        /* \"#utility.yul\":6951:7032   */\n    tag_199:\n        /* \"#utility.yul\":7079:7081   */\n      0x20\n        /* \"#utility.yul\":7071:7077   */\n      dup3\n        /* \"#utility.yul\":7068:7082   */\n      lt\n        /* \"#utility.yul\":7048:7066   */\n      dup2\n        /* \"#utility.yul\":7045:7083   */\n      eq\n        /* \"#utility.yul\":7042:7126   */\n      iszero\n      tag_200\n      jumpi\n        /* \"#utility.yul\":7098:7116   */\n      tag_201\n      tag_122\n      jump\t// in\n    tag_201:\n        /* \"#utility.yul\":7042:7126   */\n    tag_200:\n        /* \"#utility.yul\":6863:7132   */\n      pop\n        /* \"#utility.yul\":6812:7132   */\n      swap2\n      swap1\n      pop\n      jump\t// out\n        /* \"#utility.yul\":7138:7318   */\n    tag_123:\n        /* \"#utility.yul\":7186:7263   */\n      0x4e487b7100000000000000000000000000000000000000000000000000000000\n        /* \"#utility.yul\":7183:7184   */\n      0x00\n        /* \"#utility.yul\":7176:7264   */\n      mstore\n        /* \"#utility.yul\":7283:7287   */\n      0x11\n        /* \"#utility.yul\":7280:7281   */\n      0x04\n        /* \"#utility.yul\":7273:7288   */\n      mstore\n        /* \"#utility.yul\":7307:7311   */\n      0x24\n        /* \"#utility.yul\":7304:7305   */\n      0x00\n        /* \"#utility.yul\":7297:7312   */\n      revert\n        /* \"#utility.yul\":7324:7629   */\n    tag_53:\n        /* \"#utility.yul\":7364:7367   */\n      0x00\n        /* \"#utility.yul\":7383:7403   */\n      tag_204\n        /* \"#utility.yul\":7401:7402   */\n      dup3\n        /* \"#utility.yul\":7383:7403   */\n      tag_104\n      jump\t// in\n    tag_204:\n        /* \"#utility.yul\":7378:7403   */\n      swap2\n      pop\n        /* \"#utility.yul\":7417:7437   */\n      tag_205\n        /* \"#utility.yul\":7435:7436   */\n      dup4\n        /* \"#utility.yul\":7417:7437   */\n      tag_104\n      jump\t// in\n    tag_205:\n        /* \"#utility.yul\":7412:7437   */\n      swap3\n      pop\n        /* \"#utility.yul\":7571:7572   */\n      dup3\n        /* \"#utility.yul\":7503:7569   */\n      0xffffffffffffffffffffffffffffffffffffffffffffffffffffffffffffffff\n        /* \"#utility.yul\":7499:7573   */\n      sub\n        /* \"#utility.yul\":7496:7497   */\n      dup3\n        /* \"#utility.yul\":7493:7574   */\n      gt\n        /* \"#utility.yul\":7490:7597   */\n      iszero\n      tag_206\n      jumpi\n        /* \"#utility.yul\":7577:7595   */\n      tag_207\n      tag_123\n      jump\t// in\n    tag_207:\n        /* \"#utility.yul\":7490:7597   */\n    tag_206:\n        /* \"#utility.yul\":7621:7622   */\n      dup3\n        /* \"#utility.yul\":7618:7619   */\n      dup3\n        /* \"#utility.yul\":7614:7623   */\n      add\n        /* \"#utility.yul\":7607:7623   */\n      swap1\n      pop\n        /* \"#utility.yul\":7324:7629   */\n      swap3\n      swap2\n      pop\n      pop\n      jump\t// out\n        /* \"#utility.yul\":7635:7826   */\n    tag_57:\n        /* \"#utility.yul\":7675:7679   */\n      0x00\n        /* \"#utility.yul\":7695:7715   */\n      tag_209\n        /* \"#utility.yul\":7713:7714   */\n      dup3\n        /* \"#utility.yul\":7695:7715   */\n      tag_104\n      jump\t// in\n    tag_209:\n        /* \"#utility.yul\":7690:7715   */\n      swap2\n      pop\n        /* \"#utility.yul\":7729:7749   */\n      tag_210\n        /* \"#utility.yul\":7747:7748   */\n      dup4\n        /* \"#utility.yul\":7729:7749   */\n      tag_104\n      jump\t// in\n    tag_210:\n        /* \"#utility.yul\":7724:7749   */\n      swap3\n      pop\n        /* \"#utility.yul\":7768:7769   */\n      dup3\n        /* \"#utility.yul\":7765:7766   */\n      dup3\n        /* \"#utility.yul\":7762:7770   */\n      lt\n        /* \"#utility.yul\":7759:7793   */\n      iszero\n      tag_211\n      jumpi\n        /* \"#utility.yul\":7773:7791   */\n      tag_212\n      tag_123\n      jump\t// in\n    tag_212:\n        /* \"#utility.yul\":7759:7793   */\n    tag_211:\n        /* \"#utility.yul\":7818:7819   */\n      dup3\n        /* \"#utility.yul\":7815:7816   */\n      dup3\n        /* \"#utility.yul\":7811:7820   */\n      sub\n        /* \"#utility.yul\":7803:7820   */\n      swap1\n      pop\n        /* \"#utility.yul\":7635:7826   */\n      swap3\n      swap2\n      pop\n      pop\n      jump\t// out\n        /* \"#utility.yul\":7832:8012   */\n    tag_73:\n        /* \"#utility.yul\":7880:7957   */\n      0x4e487b7100000000000000000000000000000000000000000000000000000000\n        /* \"#utility.yul\":7877:7878   */\n      0x00\n        /* \"#utility.yul\":7870:7958   */\n      mstore\n        /* \"#utility.yul\":7977:7981   */\n      0x31\n        /* \"#utility.yul\":7974:7975   */\n      0x04\n        /* \"#utility.yul\":7967:7982   */\n      mstore\n        /* \"#utility.yul\":8001:8005   */\n      0x24\n        /* \"#utility.yul\":7998:7999   */\n      0x00\n        /* \"#utility.yul\":7991:8006   */\n      revert\n\n    auxdata: 0xa26469706673582212205124888c0d5b596f80ae35ab5faaad7ae93aa661d88bb614b0366df7c4c4eb4864736f6c634300080a0033\n}\n",
    "bytecode": {
      "linkReferences": {},
      "object": "608060405234801561001057600080fd5b50610d17806100206000396000f3fe608060405234801561001057600080fd5b506004361061004c5760003560e01c806342acaa6614610051578063ca487ad914610083578063cd2058df146100a1578063d4342cc7146100bd575b600080fd5b61006b60048036038101906100669190610851565b6100d9565b60405161007a93929190610917565b60405180910390f35b61008b61031e565b6040516100989190610972565b60405180910390f35b6100bb60048036038101906100b69190610ac2565b610365565b005b6100d760048036038101906100d29190610851565b6104a1565b005b606080606060008060003373ffffffffffffffffffffffffffffffffffffffff1673ffffffffffffffffffffffffffffffffffffffff16815260200190815260200160002085815481106101305761012f610b69565b5b906000526020600020906003020160405180606001604052908160008201805461015990610bc7565b80601f016020809104026020016040519081016040528092919081815260200182805461018590610bc7565b80156101d25780601f106101a7576101008083540402835291602001916101d2565b820191906000526020600020905b8154815290600101906020018083116101b557829003601f168201915b505050505081526020016001820180546101eb90610bc7565b80601f016020809104026020016040519081016040528092919081815260200182805461021790610bc7565b80156102645780601f1061023957610100808354040283529160200191610264565b820191906000526020600020905b81548152906001019060200180831161024757829003601f168201915b5050505050815260200160028201805461027d90610bc7565b80601f01602080910402602001604051908101604052809291908181526020018280546102a990610bc7565b80156102f65780601f106102cb576101008083540402835291602001916102f6565b820191906000526020600020905b8154815290600101906020018083116102d957829003601f168201915b5050505050815250509050806000015181602001518260400151935093509350509193909250565b6000600160003373ffffffffffffffffffffffffffffffffffffffff1673ffffffffffffffffffffffffffffffffffffffff16815260200190815260200160002054905090565b600060405180606001604052808581526020018481526020018381525090506000803373ffffffffffffffffffffffffffffffffffffffff1673ffffffffffffffffffffffffffffffffffffffff1681526020019081526020016000208190806001815401808255809150506001900390600052602060002090600302016000909190919091506000820151816000019080519060200190610408929190610697565b506020820151816001019080519060200190610425929190610697565b506040820151816002019080519060200190610442929190610697565b50505060018060003373ffffffffffffffffffffffffffffffffffffffff1673ffffffffffffffffffffffffffffffffffffffff16815260200190815260200160002060008282546104949190610c28565b9250508190555050505050565b600160003373ffffffffffffffffffffffffffffffffffffffff1673ffffffffffffffffffffffffffffffffffffffff1681526020019081526020016000205481106104ec57600080fd5b60008060003373ffffffffffffffffffffffffffffffffffffffff1673ffffffffffffffffffffffffffffffffffffffff168152602001908152602001600020905080600182805490506105409190610c7e565b8154811061055157610550610b69565b5b906000526020600020906003020181838154811061057257610571610b69565b5b9060005260206000209060030201600082018160000190805461059490610bc7565b61059f92919061071d565b5060018201816001019080546105b490610bc7565b6105bf92919061071d565b5060028201816002019080546105d490610bc7565b6105df92919061071d565b50905050808054806105f4576105f3610cb2565b5b60019003818190600052602060002090600302016000808201600061061991906107aa565b60018201600061062991906107aa565b60028201600061063991906107aa565b5050905560018060003373ffffffffffffffffffffffffffffffffffffffff1673ffffffffffffffffffffffffffffffffffffffff168152602001908152602001600020600082825461068c9190610c7e565b925050819055505050565b8280546106a390610bc7565b90600052602060002090601f0160209004810192826106c5576000855561070c565b82601f106106de57805160ff191683800117855561070c565b8280016001018555821561070c579182015b8281111561070b5782518255916020019190600101906106f0565b5b50905061071991906107ea565b5090565b82805461072990610bc7565b90600052602060002090601f01602090048101928261074b5760008555610799565b82601f1061075c5780548555610799565b8280016001018555821561079957600052602060002091601f016020900482015b8281111561079857825482559160010191906001019061077d565b5b5090506107a691906107ea565b5090565b5080546107b690610bc7565b6000825580601f106107c857506107e7565b601f0160209004906000526020600020908101906107e691906107ea565b5b50565b5b808211156108035760008160009055506001016107eb565b5090565b6000604051905090565b600080fd5b600080fd5b6000819050919050565b61082e8161081b565b811461083957600080fd5b50565b60008135905061084b81610825565b92915050565b60006020828403121561086757610866610811565b5b60006108758482850161083c565b91505092915050565b600081519050919050565b600082825260208201905092915050565b60005b838110156108b857808201518184015260208101905061089d565b838111156108c7576000848401525b50505050565b6000601f19601f8301169050919050565b60006108e98261087e565b6108f38185610889565b935061090381856020860161089a565b61090c816108cd565b840191505092915050565b6000606082019050818103600083015261093181866108de565b9050818103602083015261094581856108de565b9050818103604083015261095981846108de565b9050949350505050565b61096c8161081b565b82525050565b60006020820190506109876000830184610963565b92915050565b600080fd5b600080fd5b7f4e487b7100000000000000000000000000000000000000000000000000000000600052604160045260246000fd5b6109cf826108cd565b810181811067ffffffffffffffff821117156109ee576109ed610997565b5b80604052505050565b6000610a01610807565b9050610a0d82826109c6565b919050565b600067ffffffffffffffff821115610a2d57610a2c610997565b5b610a36826108cd565b9050602081019050919050565b82818337600083830152505050565b6000610a65610a6084610a12565b6109f7565b905082815260208101848484011115610a8157610a80610992565b5b610a8c848285610a43565b509392505050565b600082601f830112610aa957610aa861098d565b5b8135610ab9848260208601610a52565b91505092915050565b600080600060608486031215610adb57610ada610811565b5b600084013567ffffffffffffffff811115610af957610af8610816565b5b610b0586828701610a94565b935050602084013567ffffffffffffffff811115610b2657610b25610816565b5b610b3286828701610a94565b925050604084013567ffffffffffffffff811115610b5357610b52610816565b5b610b5f86828701610a94565b9150509250925092565b7f4e487b7100000000000000000000000000000000000000000000000000000000600052603260045260246000fd5b7f4e487b7100000000000000000000000000000000000000000000000000000000600052602260045260246000fd5b60006002820490506001821680610bdf57607f821691505b60208210811415610bf357610bf2610b98565b5b50919050565b7f4e487b7100000000000000000000000000000000000000000000000000000000600052601160045260246000fd5b6000610c338261081b565b9150610c3e8361081b565b9250827fffffffffffffffffffffffffffffffffffffffffffffffffffffffffffffffff03821115610c7357610c72610bf9565b5b828201905092915050565b6000610c898261081b565b9150610c948361081b565b925082821015610ca757610ca6610bf9565b5b828203905092915050565b7f4e487b7100000000000000000000000000000000000000000000000000000000600052603160045260246000fdfea26469706673582212205124888c0d5b596f80ae35ab5faaad7ae93aa661d88bb614b0366df7c4c4eb4864736f6c634300080a0033",
      "opcodes": "PUSH1 0x80 PUSH1 0x40 MSTORE CALLVALUE DUP1 ISZERO PUSH2 0x10 JUMPI PUSH1 0x0 DUP1 REVERT JUMPDEST POP PUSH2 0xD17 DUP1 PUSH2 0x20 PUSH1 0x0 CODECOPY PUSH1 0x0 RETURN INVALID PUSH1 0x80 PUSH1 0x40 MSTORE CALLVALUE DUP1 ISZERO PUSH2 0x10 JUMPI PUSH1 0x0 DUP1 REVERT JUMPDEST POP PUSH1 0x4 CALLDATASIZE LT PUSH2 0x4C JUMPI PUSH1 0x0 CALLDATALOAD PUSH1 0xE0 SHR DUP1 PUSH4 0x42ACAA66 EQ PUSH2 0x51 JUMPI DUP1 PUSH4 0xCA487AD9 EQ PUSH2 0x83 JUMPI DUP1 PUSH4 0xCD2058DF EQ PUSH2 0xA1 JUMPI DUP1 PUSH4 0xD4342CC7 EQ PUSH2 0xBD JUMPI JUMPDEST PUSH1 0x0 DUP1 REVERT JUMPDEST PUSH2 0x6B PUSH1 0x4 DUP1 CALLDATASIZE SUB DUP2 ADD SWAP1 PUSH2 0x66 SWAP2 SWAP1 PUSH2 0x851 JUMP JUMPDEST PUSH2 0xD9 JUMP JUMPDEST PUSH1 0x40 MLOAD PUSH2 0x7A SWAP4 SWAP3 SWAP2 SWAP1 PUSH2 0x917 JUMP JUMPDEST PUSH1 0x40 MLOAD DUP1 SWAP2 SUB SWAP1 RETURN JUMPDEST PUSH2 0x8B PUSH2 0x31E JUMP JUMPDEST PUSH1 0x40 MLOAD PUSH2 0x98 SWAP2 SWAP1 PUSH2 0x972 JUMP JUMPDEST PUSH1 0x40 MLOAD DUP1 SWAP2 SUB SWAP1 RETURN JUMPDEST PUSH2 0xBB PUSH1 0x4 DUP1 CALLDATASIZE SUB DUP2 ADD SWAP1 PUSH2 0xB6 SWAP2 SWAP1 PUSH2 0xAC2 JUMP JUMPDEST PUSH2 0x365 JUMP JUMPDEST STOP JUMPDEST PUSH2 0xD7 PUSH1 0x4 DUP1 CALLDATASIZE SUB DUP2 ADD SWAP1 PUSH2 0xD2 SWAP2 SWAP1 PUSH2 0x851 JUMP JUMPDEST PUSH2 0x4A1 JUMP JUMPDEST STOP JUMPDEST PUSH1 0x60 DUP1 PUSH1 0x60 PUSH1 0x0 DUP1 PUSH1 0x0 CALLER PUSH20 0xFFFFFFFFFFFFFFFFFFFFFFFFFFFFFFFFFFFFFFFF AND PUSH20 0xFFFFFFFFFFFFFFFFFFFFFFFFFFFFFFFFFFFFFFFF AND DUP2 MSTORE PUSH1 0x20 ADD SWAP1 DUP2 MSTORE PUSH1 0x20 ADD PUSH1 0x0 KECCAK256 DUP6 DUP2 SLOAD DUP2 LT PUSH2 0x130 JUMPI PUSH2 0x12F PUSH2 0xB69 JUMP JUMPDEST JUMPDEST SWAP1 PUSH1 0x0 MSTORE PUSH1 0x20 PUSH1 0x0 KECCAK256 SWAP1 PUSH1 0x3 MUL ADD PUSH1 0x40 MLOAD DUP1 PUSH1 0x60 ADD PUSH1 0x40 MSTORE SWAP1 DUP2 PUSH1 0x0 DUP3 ADD DUP1 SLOAD PUSH2 0x159 SWAP1 PUSH2 0xBC7 JUMP JUMPDEST DUP1 PUSH1 0x1F ADD PUSH1 0x20 DUP1 SWAP2 DIV MUL PUSH1 0x20 ADD PUSH1 0x40 MLOAD SWAP1 DUP2 ADD PUSH1 0x40 MSTORE DUP1 SWAP3 SWAP2 SWAP1 DUP2 DUP2 MSTORE PUSH1 0x20 ADD DUP3 DUP1 SLOAD PUSH2 0x185 SWAP1 PUSH2 0xBC7 JUMP JUMPDEST DUP1 ISZERO PUSH2 0x1D2 JUMPI DUP1 PUSH1 0x1F LT PUSH2 0x1A7 JUMPI PUSH2 0x100 DUP1 DUP4 SLOAD DIV MUL DUP4 MSTORE SWAP2 PUSH1 0x20 ADD SWAP2 PUSH2 0x1D2 JUMP JUMPDEST DUP3 ADD SWAP2 SWAP1 PUSH1 0x0 MSTORE PUSH1 0x20 PUSH1 0x0 KECCAK256 SWAP1 JUMPDEST DUP2 SLOAD DUP2 MSTORE SWAP1 PUSH1 0x1 ADD SWAP1 PUSH1 0x20 ADD DUP1 DUP4 GT PUSH2 0x1B5 JUMPI DUP3 SWAP1 SUB PUSH1 0x1F AND DUP3 ADD SWAP2 JUMPDEST POP POP POP POP POP DUP2 MSTORE PUSH1 0x20 ADD PUSH1 0x1 DUP3 ADD DUP1 SLOAD PUSH2 0x1EB SWAP1 PUSH2 0xBC7 JUMP JUMPDEST DUP1 PUSH1 0x1F ADD PUSH1 0x20 DUP1 SWAP2 DIV MUL PUSH1 0x20 ADD PUSH1 0x40 MLOAD SWAP1 DUP2 ADD PUSH1 0x40 MSTORE DUP1 SWAP3 SWAP2 SWAP1 DUP2 DUP2 MSTORE PUSH1 0x20 ADD DUP3 DUP1 SLOAD PUSH2 0x217 SWAP1 PUSH2 0xBC7 JUMP JUMPDEST DUP1 ISZERO PUSH2 0x264 JUMPI DUP1 PUSH1 0x1F LT PUSH2 0x239 JUMPI PUSH2 0x100 DUP1 DUP4 SLOAD DIV MUL DUP4 MSTORE SWAP2 PUSH1 0x20 ADD SWAP2 PUSH2 0x264 JUMP JUMPDEST DUP3 ADD SWAP2 SWAP1 PUSH1 0x0 MSTORE PUSH1 0x20 PUSH1 0x0 KECCAK256 SWAP1 JUMPDEST DUP2 SLOAD DUP2 MSTORE SWAP1 PUSH1 0x1 ADD SWAP1 PUSH1 0x20 ADD DUP1 DUP4 GT PUSH2 0x247 JUMPI DUP3 SWAP1 SUB PUSH1 0x1F AND DUP3 ADD SWAP2 JUMPDEST POP POP POP POP POP DUP2 MSTORE PUSH1 0x20 ADD PUSH1 0x2 DUP3 ADD DUP1 SLOAD PUSH2 0x27D SWAP1 PUSH2 0xBC7 JUMP JUMPDEST DUP1 PUSH1 0x1F ADD PUSH1 0x20 DUP1 SWAP2 DIV MUL PUSH1 0x20 ADD PUSH1 0x40 MLOAD SWAP1 DUP2 ADD PUSH1 0x40 MSTORE DUP1 SWAP3 SWAP2 SWAP1 DUP2 DUP2 MSTORE PUSH1 0x20 ADD DUP3 DUP1 SLOAD PUSH2 0x2A9 SWAP1 PUSH2 0xBC7 JUMP JUMPDEST DUP1 ISZERO PUSH2 0x2F6 JUMPI DUP1 PUSH1 0x1F LT PUSH2 0x2CB JUMPI PUSH2 0x100 DUP1 DUP4 SLOAD DIV MUL DUP4 MSTORE SWAP2 PUSH1 0x20 ADD SWAP2 PUSH2 0x2F6 JUMP JUMPDEST DUP3 ADD SWAP2 SWAP1 PUSH1 0x0 MSTORE PUSH1 0x20 PUSH1 0x0 KECCAK256 SWAP1 JUMPDEST DUP2 SLOAD DUP2 MSTORE SWAP1 PUSH1 0x1 ADD SWAP1 PUSH1 0x20 ADD DUP1 DUP4 GT PUSH2 0x2D9 JUMPI DUP3 SWAP1 SUB PUSH1 0x1F AND DUP3 ADD SWAP2 JUMPDEST POP POP POP POP POP DUP2 MSTORE POP POP SWAP1 POP DUP1 PUSH1 0x0 ADD MLOAD DUP2 PUSH1 0x20 ADD MLOAD DUP3 PUSH1 0x40 ADD MLOAD SWAP4 POP SWAP4 POP SWAP4 POP POP SWAP2 SWAP4 SWAP1 SWAP3 POP JUMP JUMPDEST PUSH1 0x0 PUSH1 0x1 PUSH1 0x0 CALLER PUSH20 0xFFFFFFFFFFFFFFFFFFFFFFFFFFFFFFFFFFFFFFFF AND PUSH20 0xFFFFFFFFFFFFFFFFFFFFFFFFFFFFFFFFFFFFFFFF AND DUP2 MSTORE PUSH1 0x20 ADD SWAP1 DUP2 MSTORE PUSH1 0x20 ADD PUSH1 0x0 KECCAK256 SLOAD SWAP1 POP SWAP1 JUMP JUMPDEST PUSH1 0x0 PUSH1 0x40 MLOAD DUP1 PUSH1 0x60 ADD PUSH1 0x40 MSTORE DUP1 DUP6 DUP2 MSTORE PUSH1 0x20 ADD DUP5 DUP2 MSTORE PUSH1 0x20 ADD DUP4 DUP2 MSTORE POP SWAP1 POP PUSH1 0x0 DUP1 CALLER PUSH20 0xFFFFFFFFFFFFFFFFFFFFFFFFFFFFFFFFFFFFFFFF AND PUSH20 0xFFFFFFFFFFFFFFFFFFFFFFFFFFFFFFFFFFFFFFFF AND DUP2 MSTORE PUSH1 0x20 ADD SWAP1 DUP2 MSTORE PUSH1 0x20 ADD PUSH1 0x0 KECCAK256 DUP2 SWAP1 DUP1 PUSH1 0x1 DUP2 SLOAD ADD DUP1 DUP3 SSTORE DUP1 SWAP2 POP POP PUSH1 0x1 SWAP1 SUB SWAP1 PUSH1 0x0 MSTORE PUSH1 0x20 PUSH1 0x0 KECCAK256 SWAP1 PUSH1 0x3 MUL ADD PUSH1 0x0 SWAP1 SWAP2 SWAP1 SWAP2 SWAP1 SWAP2 POP PUSH1 0x0 DUP3 ADD MLOAD DUP2 PUSH1 0x0 ADD SWAP1 DUP1 MLOAD SWAP1 PUSH1 0x20 ADD SWAP1 PUSH2 0x408 SWAP3 SWAP2 SWAP1 PUSH2 0x697 JUMP JUMPDEST POP PUSH1 0x20 DUP3 ADD MLOAD DUP2 PUSH1 0x1 ADD SWAP1 DUP1 MLOAD SWAP1 PUSH1 0x20 ADD SWAP1 PUSH2 0x425 SWAP3 SWAP2 SWAP1 PUSH2 0x697 JUMP JUMPDEST POP PUSH1 0x40 DUP3 ADD MLOAD DUP2 PUSH1 0x2 ADD SWAP1 DUP1 MLOAD SWAP1 PUSH1 0x20 ADD SWAP1 PUSH2 0x442 SWAP3 SWAP2 SWAP1 PUSH2 0x697 JUMP JUMPDEST POP POP POP PUSH1 0x1 DUP1 PUSH1 0x0 CALLER PUSH20 0xFFFFFFFFFFFFFFFFFFFFFFFFFFFFFFFFFFFFFFFF AND PUSH20 0xFFFFFFFFFFFFFFFFFFFFFFFFFFFFFFFFFFFFFFFF AND DUP2 MSTORE PUSH1 0x20 ADD SWAP1 DUP2 MSTORE PUSH1 0x20 ADD PUSH1 0x0 KECCAK256 PUSH1 0x0 DUP3 DUP3 SLOAD PUSH2 0x494 SWAP2 SWAP1 PUSH2 0xC28 JUMP JUMPDEST SWAP3 POP POP DUP2 SWAP1 SSTORE POP POP POP POP POP JUMP JUMPDEST PUSH1 0x1 PUSH1 0x0 CALLER PUSH20 0xFFFFFFFFFFFFFFFFFFFFFFFFFFFFFFFFFFFFFFFF AND PUSH20 0xFFFFFFFFFFFFFFFFFFFFFFFFFFFFFFFFFFFFFFFF AND DUP2 MSTORE PUSH1 0x20 ADD SWAP1 DUP2 MSTORE PUSH1 0x20 ADD PUSH1 0x0 KECCAK256 SLOAD DUP2 LT PUSH2 0x4EC JUMPI PUSH1 0x0 DUP1 REVERT JUMPDEST PUSH1 0x0 DUP1 PUSH1 0x0 CALLER PUSH20 0xFFFFFFFFFFFFFFFFFFFFFFFFFFFFFFFFFFFFFFFF AND PUSH20 0xFFFFFFFFFFFFFFFFFFFFFFFFFFFFFFFFFFFFFFFF AND DUP2 MSTORE PUSH1 0x20 ADD SWAP1 DUP2 MSTORE PUSH1 0x20 ADD PUSH1 0x0 KECCAK256 SWAP1 POP DUP1 PUSH1 0x1 DUP3 DUP1 SLOAD SWAP1 POP PUSH2 0x540 SWAP2 SWAP1 PUSH2 0xC7E JUMP JUMPDEST DUP2 SLOAD DUP2 LT PUSH2 0x551 JUMPI PUSH2 0x550 PUSH2 0xB69 JUMP JUMPDEST JUMPDEST SWAP1 PUSH1 0x0 MSTORE PUSH1 0x20 PUSH1 0x0 KECCAK256 SWAP1 PUSH1 0x3 MUL ADD DUP2 DUP4 DUP2 SLOAD DUP2 LT PUSH2 0x572 JUMPI PUSH2 0x571 PUSH2 0xB69 JUMP JUMPDEST JUMPDEST SWAP1 PUSH1 0x0 MSTORE PUSH1 0x20 PUSH1 0x0 KECCAK256 SWAP1 PUSH1 0x3 MUL ADD PUSH1 0x0 DUP3 ADD DUP2 PUSH1 0x0 ADD SWAP1 DUP1 SLOAD PUSH2 0x594 SWAP1 PUSH2 0xBC7 JUMP JUMPDEST PUSH2 0x59F SWAP3 SWAP2 SWAP1 PUSH2 0x71D JUMP JUMPDEST POP PUSH1 0x1 DUP3 ADD DUP2 PUSH1 0x1 ADD SWAP1 DUP1 SLOAD PUSH2 0x5B4 SWAP1 PUSH2 0xBC7 JUMP JUMPDEST PUSH2 0x5BF SWAP3 SWAP2 SWAP1 PUSH2 0x71D JUMP JUMPDEST POP PUSH1 0x2 DUP3 ADD DUP2 PUSH1 0x2 ADD SWAP1 DUP1 SLOAD PUSH2 0x5D4 SWAP1 PUSH2 0xBC7 JUMP JUMPDEST PUSH2 0x5DF SWAP3 SWAP2 SWAP1 PUSH2 0x71D JUMP JUMPDEST POP SWAP1 POP POP DUP1 DUP1 SLOAD DUP1 PUSH2 0x5F4 JUMPI PUSH2 0x5F3 PUSH2 0xCB2 JUMP JUMPDEST JUMPDEST PUSH1 0x1 SWAP1 SUB DUP2 DUP2 SWAP1 PUSH1 0x0 MSTORE PUSH1 0x20 PUSH1 0x0 KECCAK256 SWAP1 PUSH1 0x3 MUL ADD PUSH1 0x0 DUP1 DUP3 ADD PUSH1 0x0 PUSH2 0x619 SWAP2 SWAP1 PUSH2 0x7AA JUMP JUMPDEST PUSH1 0x1 DUP3 ADD PUSH1 0x0 PUSH2 0x629 SWAP2 SWAP1 PUSH2 0x7AA JUMP JUMPDEST PUSH1 0x2 DUP3 ADD PUSH1 0x0 PUSH2 0x639 SWAP2 SWAP1 PUSH2 0x7AA JUMP JUMPDEST POP POP SWAP1 SSTORE PUSH1 0x1 DUP1 PUSH1 0x0 CALLER PUSH20 0xFFFFFFFFFFFFFFFFFFFFFFFFFFFFFFFFFFFFFFFF AND PUSH20 0xFFFFFFFFFFFFFFFFFFFFFFFFFFFFFFFFFFFFFFFF AND DUP2 MSTORE PUSH1 0x20 ADD SWAP1 DUP2 MSTORE PUSH1 0x20 ADD PUSH1 0x0 KECCAK256 PUSH1 0x0 DUP3 DUP3 SLOAD PUSH2 0x68C SWAP2 SWAP1 PUSH2 0xC7E JUMP JUMPDEST SWAP3 POP POP DUP2 SWAP1 SSTORE POP POP POP JUMP JUMPDEST DUP3 DUP1 SLOAD PUSH2 0x6A3 SWAP1 PUSH2 0xBC7 JUMP JUMPDEST SWAP1 PUSH1 0x0 MSTORE PUSH1 0x20 PUSH1 0x0 KECCAK256 SWAP1 PUSH1 0x1F ADD PUSH1 0x20 SWAP1 DIV DUP2 ADD SWAP3 DUP3 PUSH2 0x6C5 JUMPI PUSH1 0x0 DUP6 SSTORE PUSH2 0x70C JUMP JUMPDEST DUP3 PUSH1 0x1F LT PUSH2 0x6DE JUMPI DUP1 MLOAD PUSH1 0xFF NOT AND DUP4 DUP1 ADD OR DUP6 SSTORE PUSH2 0x70C JUMP JUMPDEST DUP3 DUP1 ADD PUSH1 0x1 ADD DUP6 SSTORE DUP3 ISZERO PUSH2 0x70C JUMPI SWAP2 DUP3 ADD JUMPDEST DUP3 DUP2 GT ISZERO PUSH2 0x70B JUMPI DUP3 MLOAD DUP3 SSTORE SWAP2 PUSH1 0x20 ADD SWAP2 SWAP1 PUSH1 0x1 ADD SWAP1 PUSH2 0x6F0 JUMP JUMPDEST JUMPDEST POP SWAP1 POP PUSH2 0x719 SWAP2 SWAP1 PUSH2 0x7EA JUMP JUMPDEST POP SWAP1 JUMP JUMPDEST DUP3 DUP1 SLOAD PUSH2 0x729 SWAP1 PUSH2 0xBC7 JUMP JUMPDEST SWAP1 PUSH1 0x0 MSTORE PUSH1 0x20 PUSH1 0x0 KECCAK256 SWAP1 PUSH1 0x1F ADD PUSH1 0x20 SWAP1 DIV DUP2 ADD SWAP3 DUP3 PUSH2 0x74B JUMPI PUSH1 0x0 DUP6 SSTORE PUSH2 0x799 JUMP JUMPDEST DUP3 PUSH1 0x1F LT PUSH2 0x75C JUMPI DUP1 SLOAD DUP6 SSTORE PUSH2 0x799 JUMP JUMPDEST DUP3 DUP1 ADD PUSH1 0x1 ADD DUP6 SSTORE DUP3 ISZERO PUSH2 0x799 JUMPI PUSH1 0x0 MSTORE PUSH1 0x20 PUSH1 0x0 KECCAK256 SWAP2 PUSH1 0x1F ADD PUSH1 0x20 SWAP1 DIV DUP3 ADD JUMPDEST DUP3 DUP2 GT ISZERO PUSH2 0x798 JUMPI DUP3 SLOAD DUP3 SSTORE SWAP2 PUSH1 0x1 ADD SWAP2 SWAP1 PUSH1 0x1 ADD SWAP1 PUSH2 0x77D JUMP JUMPDEST JUMPDEST POP SWAP1 POP PUSH2 0x7A6 SWAP2 SWAP1 PUSH2 0x7EA JUMP JUMPDEST POP SWAP1 JUMP JUMPDEST POP DUP1 SLOAD PUSH2 0x7B6 SWAP1 PUSH2 0xBC7 JUMP JUMPDEST PUSH1 0x0 DUP3 SSTORE DUP1 PUSH1 0x1F LT PUSH2 0x7C8 JUMPI POP PUSH2 0x7E7 JUMP JUMPDEST PUSH1 0x1F ADD PUSH1 0x20 SWAP1 DIV SWAP1 PUSH1 0x0 MSTORE PUSH1 0x20 PUSH1 0x0 KECCAK256 SWAP1 DUP2 ADD SWAP1 PUSH2 0x7E6 SWAP2 SWAP1 PUSH2 0x7EA JUMP JUMPDEST JUMPDEST POP JUMP JUMPDEST JUMPDEST DUP1 DUP3 GT ISZERO PUSH2 0x803 JUMPI PUSH1 0x0 DUP2 PUSH1 0x0 SWAP1 SSTORE POP PUSH1 0x1 ADD PUSH2 0x7EB JUMP JUMPDEST POP SWAP1 JUMP JUMPDEST PUSH1 0x0 PUSH1 0x40 MLOAD SWAP1 POP SWAP1 JUMP JUMPDEST PUSH1 0x0 DUP1 REVERT JUMPDEST PUSH1 0x0 DUP1 REVERT JUMPDEST PUSH1 0x0 DUP2 SWAP1 POP SWAP2 SWAP1 POP JUMP JUMPDEST PUSH2 0x82E DUP2 PUSH2 0x81B JUMP JUMPDEST DUP2 EQ PUSH2 0x839 JUMPI PUSH1 0x0 DUP1 REVERT JUMPDEST POP JUMP JUMPDEST PUSH1 0x0 DUP2 CALLDATALOAD SWAP1 POP PUSH2 0x84B DUP2 PUSH2 0x825 JUMP JUMPDEST SWAP3 SWAP2 POP POP JUMP JUMPDEST PUSH1 0x0 PUSH1 0x20 DUP3 DUP5 SUB SLT ISZERO PUSH2 0x867 JUMPI PUSH2 0x866 PUSH2 0x811 JUMP JUMPDEST JUMPDEST PUSH1 0x0 PUSH2 0x875 DUP5 DUP3 DUP6 ADD PUSH2 0x83C JUMP JUMPDEST SWAP2 POP POP SWAP3 SWAP2 POP POP JUMP JUMPDEST PUSH1 0x0 DUP2 MLOAD SWAP1 POP SWAP2 SWAP1 POP JUMP JUMPDEST PUSH1 0x0 DUP3 DUP3 MSTORE PUSH1 0x20 DUP3 ADD SWAP1 POP SWAP3 SWAP2 POP POP JUMP JUMPDEST PUSH1 0x0 JUMPDEST DUP4 DUP2 LT ISZERO PUSH2 0x8B8 JUMPI DUP1 DUP3 ADD MLOAD DUP2 DUP5 ADD MSTORE PUSH1 0x20 DUP2 ADD SWAP1 POP PUSH2 0x89D JUMP JUMPDEST DUP4 DUP2 GT ISZERO PUSH2 0x8C7 JUMPI PUSH1 0x0 DUP5 DUP5 ADD MSTORE JUMPDEST POP POP POP POP JUMP JUMPDEST PUSH1 0x0 PUSH1 0x1F NOT PUSH1 0x1F DUP4 ADD AND SWAP1 POP SWAP2 SWAP1 POP JUMP JUMPDEST PUSH1 0x0 PUSH2 0x8E9 DUP3 PUSH2 0x87E JUMP JUMPDEST PUSH2 0x8F3 DUP2 DUP6 PUSH2 0x889 JUMP JUMPDEST SWAP4 POP PUSH2 0x903 DUP2 DUP6 PUSH1 0x20 DUP7 ADD PUSH2 0x89A JUMP JUMPDEST PUSH2 0x90C DUP2 PUSH2 0x8CD JUMP JUMPDEST DUP5 ADD SWAP2 POP POP SWAP3 SWAP2 POP POP JUMP JUMPDEST PUSH1 0x0 PUSH1 0x60 DUP3 ADD SWAP1 POP DUP2 DUP2 SUB PUSH1 0x0 DUP4 ADD MSTORE PUSH2 0x931 DUP2 DUP7 PUSH2 0x8DE JUMP JUMPDEST SWAP1 POP DUP2 DUP2 SUB PUSH1 0x20 DUP4 ADD MSTORE PUSH2 0x945 DUP2 DUP6 PUSH2 0x8DE JUMP JUMPDEST SWAP1 POP DUP2 DUP2 SUB PUSH1 0x40 DUP4 ADD MSTORE PUSH2 0x959 DUP2 DUP5 PUSH2 0x8DE JUMP JUMPDEST SWAP1 POP SWAP5 SWAP4 POP POP POP POP JUMP JUMPDEST PUSH2 0x96C DUP2 PUSH2 0x81B JUMP JUMPDEST DUP3 MSTORE POP POP JUMP JUMPDEST PUSH1 0x0 PUSH1 0x20 DUP3 ADD SWAP1 POP PUSH2 0x987 PUSH1 0x0 DUP4 ADD DUP5 PUSH2 0x963 JUMP JUMPDEST SWAP3 SWAP2 POP POP JUMP JUMPDEST PUSH1 0x0 DUP1 REVERT JUMPDEST PUSH1 0x0 DUP1 REVERT JUMPDEST PUSH32 0x4E487B7100000000000000000000000000000000000000000000000000000000 PUSH1 0x0 MSTORE PUSH1 0x41 PUSH1 0x4 MSTORE PUSH1 0x24 PUSH1 0x0 REVERT JUMPDEST PUSH2 0x9CF DUP3 PUSH2 0x8CD JUMP JUMPDEST DUP2 ADD DUP2 DUP2 LT PUSH8 0xFFFFFFFFFFFFFFFF DUP3 GT OR ISZERO PUSH2 0x9EE JUMPI PUSH2 0x9ED PUSH2 0x997 JUMP JUMPDEST JUMPDEST DUP1 PUSH1 0x40 MSTORE POP POP POP JUMP JUMPDEST PUSH1 0x0 PUSH2 0xA01 PUSH2 0x807 JUMP JUMPDEST SWAP1 POP PUSH2 0xA0D DUP3 DUP3 PUSH2 0x9C6 JUMP JUMPDEST SWAP2 SWAP1 POP JUMP JUMPDEST PUSH1 0x0 PUSH8 0xFFFFFFFFFFFFFFFF DUP3 GT ISZERO PUSH2 0xA2D JUMPI PUSH2 0xA2C PUSH2 0x997 JUMP JUMPDEST JUMPDEST PUSH2 0xA36 DUP3 PUSH2 0x8CD JUMP JUMPDEST SWAP1 POP PUSH1 0x20 DUP2 ADD SWAP1 POP SWAP2 SWAP1 POP JUMP JUMPDEST DUP3 DUP2 DUP4 CALLDATACOPY PUSH1 0x0 DUP4 DUP4 ADD MSTORE POP POP POP JUMP JUMPDEST PUSH1 0x0 PUSH2 0xA65 PUSH2 0xA60 DUP5 PUSH2 0xA12 JUMP JUMPDEST PUSH2 0x9F7 JUMP JUMPDEST SWAP1 POP DUP3 DUP2 MSTORE PUSH1 0x20 DUP2 ADD DUP5 DUP5 DUP5 ADD GT ISZERO PUSH2 0xA81 JUMPI PUSH2 0xA80 PUSH2 0x992 JUMP JUMPDEST JUMPDEST PUSH2 0xA8C DUP5 DUP3 DUP6 PUSH2 0xA43 JUMP JUMPDEST POP SWAP4 SWAP3 POP POP POP JUMP JUMPDEST PUSH1 0x0 DUP3 PUSH1 0x1F DUP4 ADD SLT PUSH2 0xAA9 JUMPI PUSH2 0xAA8 PUSH2 0x98D JUMP JUMPDEST JUMPDEST DUP2 CALLDATALOAD PUSH2 0xAB9 DUP5 DUP3 PUSH1 0x20 DUP7 ADD PUSH2 0xA52 JUMP JUMPDEST SWAP2 POP POP SWAP3 SWAP2 POP POP JUMP JUMPDEST PUSH1 0x0 DUP1 PUSH1 0x0 PUSH1 0x60 DUP5 DUP7 SUB SLT ISZERO PUSH2 0xADB JUMPI PUSH2 0xADA PUSH2 0x811 JUMP JUMPDEST JUMPDEST PUSH1 0x0 DUP5 ADD CALLDATALOAD PUSH8 0xFFFFFFFFFFFFFFFF DUP2 GT ISZERO PUSH2 0xAF9 JUMPI PUSH2 0xAF8 PUSH2 0x816 JUMP JUMPDEST JUMPDEST PUSH2 0xB05 DUP7 DUP3 DUP8 ADD PUSH2 0xA94 JUMP JUMPDEST SWAP4 POP POP PUSH1 0x20 DUP5 ADD CALLDATALOAD PUSH8 0xFFFFFFFFFFFFFFFF DUP2 GT ISZERO PUSH2 0xB26 JUMPI PUSH2 0xB25 PUSH2 0x816 JUMP JUMPDEST JUMPDEST PUSH2 0xB32 DUP7 DUP3 DUP8 ADD PUSH2 0xA94 JUMP JUMPDEST SWAP3 POP POP PUSH1 0x40 DUP5 ADD CALLDATALOAD PUSH8 0xFFFFFFFFFFFFFFFF DUP2 GT ISZERO PUSH2 0xB53 JUMPI PUSH2 0xB52 PUSH2 0x816 JUMP JUMPDEST JUMPDEST PUSH2 0xB5F DUP7 DUP3 DUP8 ADD PUSH2 0xA94 JUMP JUMPDEST SWAP2 POP POP SWAP3 POP SWAP3 POP SWAP3 JUMP JUMPDEST PUSH32 0x4E487B7100000000000000000000000000000000000000000000000000000000 PUSH1 0x0 MSTORE PUSH1 0x32 PUSH1 0x4 MSTORE PUSH1 0x24 PUSH1 0x0 REVERT JUMPDEST PUSH32 0x4E487B7100000000000000000000000000000000000000000000000000000000 PUSH1 0x0 MSTORE PUSH1 0x22 PUSH1 0x4 MSTORE PUSH1 0x24 PUSH1 0x0 REVERT JUMPDEST PUSH1 0x0 PUSH1 0x2 DUP3 DIV SWAP1 POP PUSH1 0x1 DUP3 AND DUP1 PUSH2 0xBDF JUMPI PUSH1 0x7F DUP3 AND SWAP2 POP JUMPDEST PUSH1 0x20 DUP3 LT DUP2 EQ ISZERO PUSH2 0xBF3 JUMPI PUSH2 0xBF2 PUSH2 0xB98 JUMP JUMPDEST JUMPDEST POP SWAP2 SWAP1 POP JUMP JUMPDEST PUSH32 0x4E487B7100000000000000000000000000000000000000000000000000000000 PUSH1 0x0 MSTORE PUSH1 0x11 PUSH1 0x4 MSTORE PUSH1 0x24 PUSH1 0x0 REVERT JUMPDEST PUSH1 0x0 PUSH2 0xC33 DUP3 PUSH2 0x81B JUMP JUMPDEST SWAP2 POP PUSH2 0xC3E DUP4 PUSH2 0x81B JUMP JUMPDEST SWAP3 POP DUP3 PUSH32 0xFFFFFFFFFFFFFFFFFFFFFFFFFFFFFFFFFFFFFFFFFFFFFFFFFFFFFFFFFFFFFFFF SUB DUP3 GT ISZERO PUSH2 0xC73 JUMPI PUSH2 0xC72 PUSH2 0xBF9 JUMP JUMPDEST JUMPDEST DUP3 DUP3 ADD SWAP1 POP SWAP3 SWAP2 POP POP JUMP JUMPDEST PUSH1 0x0 PUSH2 0xC89 DUP3 PUSH2 0x81B JUMP JUMPDEST SWAP2 POP PUSH2 0xC94 DUP4 PUSH2 0x81B JUMP JUMPDEST SWAP3 POP DUP3 DUP3 LT ISZERO PUSH2 0xCA7 JUMPI PUSH2 0xCA6 PUSH2 0xBF9 JUMP JUMPDEST JUMPDEST DUP3 DUP3 SUB SWAP1 POP SWAP3 SWAP2 POP POP JUMP JUMPDEST PUSH32 0x4E487B7100000000000000000000000000000000000000000000000000000000 PUSH1 0x0 MSTORE PUSH1 0x31 PUSH1 0x4 MSTORE PUSH1 0x24 PUSH1 0x0 REVERT INVALID LOG2 PUSH5 0x6970667358 0x22 SLT KECCAK256 MLOAD 0x24 DUP9 DUP13 0xD JUMPDEST MSIZE PUSH16 0x80AE35AB5FAAAD7AE93AA661D88BB614 0xB0 CALLDATASIZE PUSH14 0xF7C4C4EB4864736F6C634300080A STOP CALLER "
    },
    "gasEstimates": {
      "creation": {
        "codeDepositCost": "670200",
        "executionCost": "702",
        "totalCost": "670902"
      },
      "external": {
        "addSong(string,string,string)": "infinite",
        "getSong(uint256)": "infinite",
        "getSongCount()": "2526",
        "removeSong(uint256)": "infinite"
      }
    },
    "methodIdentifiers": {
      "addSong(string,string,string)": "cd2058df",
      "getSong(uint256)": "42acaa66",
      "getSongCount()": "ca487ad9",
      "removeSong(uint256)": "d4342cc7"
    }
  },
  "storageLayout": {
    "storage": [
      {
        "astId": 14,
        "contract": "MusicList.sol:MusicList",
        "label": "songs",
        "offset": 0,
        "slot": "0",
        "type": "t_mapping(t_address,t_array(t_struct(Song)8_storage)dyn_storage)"
      },
      {
        "astId": 18,
        "contract": "MusicList.sol:MusicList",
        "label": "songsCount",
        "offset": 0,
        "slot": "1",
        "type": "t_mapping(t_address,t_uint256)"
      }
    ],
    "types": {
      "t_address": {
        "encoding": "inplace",
        "label": "address",
        "numberOfBytes": "20"
      },
      "t_array(t_struct(Song)8_storage)dyn_storage": {
        "base": "t_struct(Song)8_storage",
        "encoding": "dynamic_array",
        "label": "struct MusicList.Song[]",
        "numberOfBytes": "32"
      },
      "t_mapping(t_address,t_array(t_struct(Song)8_storage)dyn_storage)": {
        "encoding": "mapping",
        "key": "t_address",
        "label": "mapping(address => struct MusicList.Song[])",
        "numberOfBytes": "32",
        "value": "t_array(t_struct(Song)8_storage)dyn_storage"
      },
      "t_mapping(t_address,t_uint256)": {
        "encoding": "mapping",
        "key": "t_address",
        "label": "mapping(address => uint256)",
        "numberOfBytes": "32",
        "value": "t_uint256"
      },
      "t_string_storage": {
        "encoding": "bytes",
        "label": "string",
        "numberOfBytes": "32"
      },
      "t_struct(Song)8_storage": {
        "encoding": "inplace",
        "label": "struct MusicList.Song",
        "members": [
          {
            "astId": 3,
            "contract": "MusicList.sol:MusicList",
            "label": "name",
            "offset": 0,
            "slot": "0",
            "type": "t_string_storage"
          },
          {
            "astId": 5,
            "contract": "MusicList.sol:MusicList",
            "label": "artistName",
            "offset": 0,
            "slot": "1",
            "type": "t_string_storage"
          },
          {
            "astId": 7,
            "contract": "MusicList.sol:MusicList",
            "label": "url",
            "offset": 0,
            "slot": "2",
            "type": "t_string_storage"
          }
        ],
        "numberOfBytes": "96"
      },
      "t_uint256": {
        "encoding": "inplace",
        "label": "uint256",
        "numberOfBytes": "32"
      }
    }
  },
  "userdoc": {
    "kind": "user",
    "methods": {},
    "version": 1
  }
}